:100000000C9434000C9451000C9451000C94510049
:100010000C9451000C9451000C9451000C9451001C
:100020000C9451000C9451000C9451000C9451000C
:100030000C9451000C9451000C9451000C945100FC
:100040000C9451000C9451000C9453000C948E00AD
:100050000C94CC000C9451000C9451000C94510061
:100060000C9451000C94510011241FBECFEFD8E026
:10007000DEBFCDBF11E0A0E0B1E0EEEBFAE002C0E0
:1000800005900D92A633B107D9F721E0A6E3B1E0C0
:1000900001C01D92AE33B207E1F70E9485030C94B4
:1000A0005D050C9400001F920F9200905F000F926C
:1000B00011242F933F934F935F936F937F938F936D
:1000C0009F93AF93BF93EF93FF93CF93DF931F92D1
:1000D000CDB7DEB70E94B5030E94F30189830E9469
:1000E000B5039C01CE010196BC01C9010E942D03FC
:1000F00000000F90DF91CF91FF91EF91BF91AF91F1
:100100009F918F917F916F915F914F913F912F912F
:100110000F9000925F000F901F9018951F920F9202
:1001200000905F000F9211240F931F932F933F9322
:100130004F935F936F937F938F939F93AF93BF93EF
:10014000EF93FF93CF93DF93CDB7DEB706EC10E0CC
:100150000E94B503FC0180819181FC018081F8013E
:1001600080830E94B5030E94A7010000DF91CF9118
:10017000FF91EF91BF91AF919F918F917F916F917F
:100180005F914F913F912F911F910F910F9000928E
:100190005F000F901F9018951F920F9200905F00C4
:1001A0000F9211242F933F934F935F936F937F93FD
:1001B0008F939F93AF93BF93EF93FF93CF93DF936F
:1001C0001F92CDB7DEB786EC90E0FC018081898379
:1001D0000E94B5039C01CE010196BC01C9010E9499
:1001E00066030E94B5030E94910100000F90DF9109
:1001F000CF91FF91EF91BF91AF919F918F917F919F
:100200006F915F914F913F912F910F9000925F00FE
:100210000F901F901895CF93DF9300D000D0CDB7EB
:10022000DEB79A8389837C836B8381EC90E028E13D
:10023000FC01208382EC90E02EE0FC01208384EC22
:1002400090E02B813C81F9012081222F30E0FC01DC
:100250003183208389819A810E944D0100000F9093
:100260000F900F900F90DF91CF910895CF93DF9370
:1002700000D0CDB7DEB79A83898381EC90E021EC82
:1002800030E0F90120812062FC0120837894000095
:100290000F900F90DF91CF910895CF93DF9300D00F
:1002A000CDB7DEB79A83898381EC90E021EC30E012
:1002B000F90120812068FC012083789400000F90D0
:1002C0000F90DF91CF910895CF93DF9300D0CDB7FA
:1002D000DEB79A83898381EC90E021EC30E0F9016C
:1002E00020812F77FC01208300000F900F90DF9179
:1002F000CF910895CF93DF9300D0CDB7DEB79A8327
:10030000898381EC90E021EC30E0F90120812064C8
:10031000FC012083789400000F900F90DF91CF9123
:100320000895CF93DF9300D0CDB7DEB79A8389834A
:1003300081EC90E021EC30E0F90120812F7BFC0181
:10034000208300000F900F90DF91CF910895CF93FD
:10035000DF9300D0CDB7DEB79A83898381EC90E03C
:1003600021EC30E0F90120812F7DFC012083000089
:100370000F900F90DF91CF910895CF93DF9300D02E
:10038000CDB7DEB79A83898381EC90E0FC011082BF
:1003900000000F900F90DF91CF910895CF93DF93DE
:1003A00000D000D0CDB7DEB79A8389837C836B837E
:1003B00089819A81FC01808191812B813C81F901A5
:1003C0002081FC01208389819A810E9436018981E4
:1003D0009A810E947A0100000F900F900F900F9069
:1003E000DF91CF910895CF93DF9300D0CDB7DEB7E3
:1003F0009A83898380EC90E0FC0180818095881F3E
:100400008827881F882309F0F5CF86EC90E0FC014F
:1004100080810F900F90DF91CF910895CF93DF935C
:1004200000D000D0CDB7DEB79A8389837C836B83FD
:1004300080EC90E0FC018081882F90E08072992709
:1004400021E0892B09F020E0222309F0F1CF86EC8E
:1004500090E02B813C81F9012081FC01208389817E
:100460009A810E947A0100000F900F900F900F90D8
:10047000DF91CF910895CF93DF9300D000D0CDB717
:10048000DEB79A8389837C836B832B813C8189814E
:100490009A81B9010E940E0289819A8168E071E017
:1004A0000E945A0200000F900F900F900F90DF9162
:1004B000CF910895CF93DF9300D000D000D0CDB777
:1004C000DEB79C838B837E836D831A8219828D8134
:1004D0009E810E9414059C0189819A81821793074D
:1004E00090F489819A819C012F5F3F4F3A83298341
:1004F0009C018D819E81280F391F8B819C81B901C0
:100500000E940E02E4CF000026960FB6F894DEBFDC
:100510000FBECDBFDF91CF910895CF93DF9300D071
:1005200000D0CDB7DEB79A8389837C836B832B8120
:100530003C8189819A81B9010E945A0289819A81FC
:1005400068E071E00E945A0200000F900F900F9037
:100550000F90DF91CF910895CF93DF93CDB7DEB7A2
:100560002A970FB6F894DEBF0FBECDBF9E838D8352
:1005700078876F835A87498762E070E081E090E076
:100580000E94D0039C838B8389859A85FC0180819E
:10059000A82FB0E0EF81F88520813181428153811D
:1005A00064817581868197818B819C81AD01BC01BD
:1005B000C9010E941D051A8219828B819C810E94AB
:1005C00014059C0189819A818217930790F489818F
:1005D0009A819C012F5F3F4F3A8329839C018B8135
:1005E0009C81280F391F8D819E81B9010E940E02C6
:1005F000E4CF8B819C810E94840400002A960FB670
:10060000F894DEBF0FBECDBFDF91CF910895CF9399
:10061000DF9300D000D000D0CDB7DEB79A838983B6
:100620007C836B835E834D834D815E812B813C8116
:1006300089819A81B9010E94AC0289819A8168E01E
:1006400071E00E945A02000026960FB6F894DEBFB1
:100650000FBECDBFDF91CF910895CF93DF93CDB77C
:10066000DEB72D970FB6F894DEBF0FBECDBF9B87C8
:100670008A877D876C878AE089878C859D85FC01C8
:100680008081282F30E040E050E060E070E0CB0156
:1006900029833A834B835C836D837E838F83988722
:1006A0000E94B5039C01CE010996AC01CE010196D2
:1006B000BC01C9010E94070300002D960FB6F894F3
:1006C000DEBF0FBECDBFDF91CF9108950F931F9373
:1006D000CF93DF9300D000D0CDB7DEB79A83898364
:1006E0007C836B8300910001109101010E94B5038E
:1006F000B8010E948D0200000F900F900F900F9094
:10070000DF91CF911F910F910895CF93DF931F92A7
:10071000CDB7DEB780E189830E94B5039C01CE018D
:100720000196BC01C9010E940B01FFCFCF93DF935B
:1007300000D000D000D0CDB7DEB79A8389837C8308
:100740006B835E834D834D815E812B813C818981EA
:100750009A81B9010E941D0526960FB6F894DEBF56
:100760000FBECDBFDF91CF910895CF93DF93CDB76B
:10077000DEB78091360190913701892B51F462E008
:1007800070E081E090E00E94D00390933701809365
:1007900036018091360190913701DF91CF91089514
:1007A0000F931F93CF93DF93869F8001879F100D38
:1007B000969F100D1124C8010E94EC03EC010097D4
:1007C00029F0A80160E070E00E940D05CE01DF91E4
:1007D000CF911F910F9108950F931F93CF93DF93A4
:1007E0008230910510F482E090E0E0913C01F091BC
:1007F0003D0120E030E0A0E0B0E0309719F1408109
:1008000051810281138148175907C8F08417950751
:1008100069F4109731F012960C93129713961C936B
:1008200027C000933C0110933D0122C021153105E2
:1008300019F04217530718F49A01BD01EF01DF01C7
:10084000F801DBCF21153105F9F0281B390B2430D5
:10085000310580F48A819B816115710521F0FB01CE
:100860009383828304C090933D0180933C01FE01F9
:10087000329644C0FE01E20FF31F81939193225000
:100880003109398328833AC020913A0130913B01E4
:10089000232B41F4209104013091050130933B0159
:1008A00020933A0120910201309103012115310575
:1008B00041F42DB73EB74091060150910701241B2A
:1008C000350BE0913A01F0913B01E217F307A0F4F8
:1008D0002E1B3F0B2817390778F0AC014E5F5F4F96
:1008E0002417350748F04E0F5F1F50933B0140938C
:1008F0003A018193919302C0E0E0F0E0CF01DF91F3
:10090000CF911F910F910895CF93DF93009709F432
:1009100081C0FC01329713821282A0913C01B091F8
:100920003D01109781F420813181820F931F209126
:100930003A0130913B012817390751F5F0933B01FB
:10094000E0933A0167C0ED0120E030E0CE17DF0709
:1009500040F44A815B819E0141155105F1F0EA01A5
:10096000F5CFD383C28340815181840F951FC8176F
:10097000D90759F488819981840F951F0296918334
:1009800080838A819B81938382832115310529F499
:10099000F0933D01E0933C013DC0E901FB83EA8314
:1009A00049915991C40FD51FEC17FD0761F480815F
:1009B0009181840F951F0296E90199838883828132
:1009C00093819B838A83E0E0F0E012968D919C9165
:1009D0001397009719F0FD01DC01F7CF8D919C91E1
:1009E00011979D012E5F3F4F820F931F20913A0177
:1009F00030913B012817390769F4309729F4109298
:100A00003D0110923C0102C013821282B0933B015F
:100A1000A0933A01DF91CF910895DC0101C06D935D
:100A200041505040E0F70895FC0101900020E9F7A3
:100A3000809590958E0F9F1F08954532510520F4A3
:100A4000423010F00C942805FB011082CB01089570
:100A5000BB274A3031F4992322F4BDE29095819569
:100A60009F4F0C943405BB27FB015527AA27880FFD
:100A7000991FAA1FA41710F0A41B83955051B9F712
:100A8000A05DAA3308F0A95DA193009779F7B11191
:100A9000B1931192CB010C944D05DC01FC01672F41
:100AA00071917723E1F7329704C07C916D93708345
:0E0AB0006291AE17BF07C8F30895F894FFCF08
:100ABE000B0100003E0120000A0D0044617461200C
:100ACE005472616E736D697373696F6E20636F6DAF
:100ADE00706C657465642073756363657373667596
:060AEE006C6C7920210070
:00000001FF
