:100000000C9434000C9451000C9451000C94510049
:100010000C9451000C9451000C9451000C9451001C
:100020000C9451000C9451000C9451000C9451000C
:100030000C9451000C9451000C9451000C945100FC
:100040000C9451000C9451000C9451000C945100EC
:100050000C9451000C9451000C9451000C945100DC
:100060000C9451000C94510011241FBECFEFD8E026
:10007000DEBFCDBF11E0A0E0B1E0EAE8F1E002C0F0
:1000800005900D92AA30B107D9F721E0AAE0B1E0BE
:1000900001C01D92AC30B207E1F70E948B000C94B6
:1000A000C3000C940000CF93DF93CDB7DEB781EC93
:1000B00090E028E0FC01208382EC90E026E8FC013F
:1000C000208384EC90E020E130E0FC013183208348
:1000D0000000DF91CF910895CF93DF931F92CDB7AA
:1000E000DEB7898380EC90E0FC018081882F90E06E
:1000F0008072992721E0892B09F020E0222309F062
:10010000F1CF86EC90E02981FC01208300000F9064
:10011000DF91CF910895CF93DF93CDB7DEB70E94E3
:10012000530080910001909101010E94BA009C014E
:1001300080910A0190910B0182179307B0F42091EE
:1001400000013091010180910A0190910B01AC01F5
:100150004F5F5F4F50930B0140930A01820F931F33
:10016000FC0180810E946C00DCCF80E090E0DF9198
:10017000CF910895FC0101900020E9F780959095BA
:0A0180008E0F9F1F0895F894FFCF23
:0A018A00020168656C6C6F0A00004A
:00000001FF
