:100000000C9435000C945D000C945D000C945D0024
:100010000C945D000C945D000C945D000C945D00EC
:100020000C945D000C945D000C945D000C945D00DC
:100030000C945D000C945D000C945D000C945D00CC
:100040000C945D000C945D000C945D000C945D00BC
:100050000C945D000C945D000C945D000C945D00AC
:100060000C945D000C945D000F0211241FBECFEFB5
:10007000D8E0DEBFCDBF11E0A0E0B1E0EAEBF7E0F1
:1000800002C005900D92A231B107D9F721E0A2E19B
:10009000B1E001C01D92A831B207E1F710E0C5E35D
:1000A000D0E004C02197FE010E944802C433D1076A
:1000B000C9F70E94CD010C94DB030C940000CF9390
:1000C000DF9300D000D0CDB7DEB79A8389837C83DD
:1000D0006B8381EC90E028E1FC01208382EC90E0CE
:1000E0002EE0FC01208384EC90E02B813C81F9011F
:1000F0002081222F30E0FC013183208300000F900B
:100100000F900F900F90DF91CF910895CF93DF93D1
:1001100000D0CDB7DEB79A83898381EC90E0FC01F3
:10012000108200000F900F90DF91CF910895CF9330
:10013000DF9300D0CDB7DEB79A83898380EC90E05F
:10014000FC0180818095881F8827881F882309F0FB
:10015000F5CF86EC90E0FC0180810F900F90DF914D
:10016000CF910895CF93DF9300D000D0CDB7DEB705
:100170009A8389837C836B8380EC90E0FC0180818F
:10018000882F90E08072992721E0892B09F020E0E8
:10019000222309F0F1CF86EC90E02B813C81F9011C
:1001A0002081FC01208300000F900F900F900F9092
:1001B000DF91CF910895CF93DF9300D000D0CDB7DA
:1001C000DEB79A8389837C836B832B813C81898111
:1001D0009A81B9010E94B20089819A8168E071E038
:1001E0000E94FA0000000F900F900F900F90DF9187
:1001F000CF910895CF93DF9300D000D000D0CDB73A
:10020000DEB79C838B837E836D831A8219828D81F6
:100210009E810E9492039C0189819A818217930793
:1002200090F489819A819C012F5F3F4F3A83298303
:100230009C018D819E81280F391F8B819C81B90182
:100240000E94B200E4CF000026960FB6F894DEBFFD
:100250000FBECDBFDF91CF910895CF93DF9300D034
:1002600000D0CDB7DEB79A8389837C836B832B81E3
:100270003C8189819A81B9010E94FA0089819A8121
:1002800068E071E00E94FA0000000F900F900F905C
:100290000F90DF91CF910895CF93DF93CDB7DEB765
:1002A0002A970FB6F894DEBF0FBECDBF9E838D8315
:1002B00078876F835A87498762E070E081E090E039
:1002C0000E944E029C838B8389859A85FC018081E4
:1002D000A82FB0E0EF81F8852081318142815381E0
:1002E00064817581868197818B819C81AD01BC0180
:1002F000C9010E949B031A8219828B819C810E94F2
:1003000092039C0189819A818217930790F48981D5
:100310009A819C012F5F3F4F3A8329839C018B81F7
:100320009C81280F391F8D819E81B9010E94B200E6
:10033000E4CF8B819C810E94020300002A960FB6B5
:10034000F894DEBF0FBECDBFDF91CF910895CF935C
:10035000DF9300D000D000D0CDB7DEB79A83898379
:100360007C836B835E834D834D815E812B813C81D9
:1003700089819A81B9010E944C0189819A8168E042
:1003800071E00E94FA00000026960FB6F894DEBFD6
:100390000FBECDBFDF91CF910895CF93DF931F9212
:1003A000CDB7DEB780E1898380911201909113016E
:1003B0009E012F5F3F4FB9010E945F002091000115
:1003C000309101018091120190911301B9010E94B5
:1003D0002D0180E090E00F90DF91CF910895CF93B1
:1003E000DF9300D000D0CDB7DEB79A8389837C83BA
:1003F0006B8389819A81019751F48B819C8101964D
:1004000031F40E943B02909313018093120100008B
:100410000F900F900F900F90DF91CF910895CF9391
:10042000DF93CDB7DEB76FEF7FEF81E090E00E9402
:10043000EF01DF91CF910895CF93DF9300D000D0EB
:1004400000D0CDB7DEB79A8389837C836B835E83CC
:100450004D834D815E812B813C8189819A81B901D7
:100460000E949B0326960FB6F894DEBF0FBECDBF49
:10047000DF91CF910895CF93DF93CDB7DEB762E0E0
:1004800070E081E090E00E944E02DF91CF910895EC
:10049000EE0FFF1F0590F491E02D09940F931F9329
:1004A000CF93DF93869F8001879F100D969F100D3D
:1004B0001124C8010E946A02EC01009729F0A801EA
:1004C00060E070E00E948B03CE01DF91CF911F911D
:1004D0000F9108950F931F93CF93DF93823091056F
:1004E00010F482E090E0E0911601F091170120E015
:1004F00030E0A0E0B0E0309719F1408151810281F5
:10050000138148175907C8F08417950769F41097A5
:1005100031F012960C93129713961C9327C00093F8
:1005200016011093170122C02115310519F0421749
:10053000530718F49A01BD01EF01DF01F801DBCF89
:1005400021153105F9F0281B390B2430310580F4D1
:100550008A819B816115710521F0FB019383828360
:1005600004C09093170180931601FE01329644C097
:10057000FE01E20FF31F81939193225031093983D9
:1005800028833AC02091140130911501232B41F4A6
:10059000209104013091050130931501209314013D
:1005A00020910201309103012115310541F42DB74D
:1005B0003EB74091060150910701241B350BE09195
:1005C0001401F0911501E217F307A0F42E1B3F0B65
:1005D0002817390778F0AC014E5F5F4F24173507B5
:1005E00048F04E0F5F1F5093150140931401819303
:1005F000919302C0E0E0F0E0CF01DF91CF911F9135
:100600000F910895CF93DF93009709F481C0FC0107
:10061000329713821282A0911601B09117011097A0
:1006200081F420813181820F931F20911401309138
:1006300015012817390751F5F0931501E0931401BE
:1006400067C0ED0120E030E0CE17DF0740F44A81BB
:100650005B819E0141155105F1F0EA01F5CFD3838D
:10066000C28340815181840F951FC817D90759F45F
:1006700088819981840F951F0296918380838A8156
:100680009B81938382832115310529F4F09317010F
:10069000E09316013DC0E901FB83EA83499159913A
:1006A000C40FD51FEC17FD0761F480819181840F81
:1006B000951F0296E90199838883828193819B83A8
:1006C0008A83E0E0F0E012968D919C911397009759
:1006D00019F0FD01DC01F7CF8D919C9111979D01DF
:1006E0002E5F3F4F820F931F20911401309115010F
:1006F0002817390769F4309729F4109217011092DE
:10070000160102C013821282B0931501A093140146
:10071000DF91CF910895DC0101C06D9341505040AD
:10072000E0F70895FC0101900020E9F7809590958D
:100730008E0F9F1F08954532510520F4423010F06E
:100740000C94A603FB011082CB010895BB274A300D
:1007500031F4992322F4BDE2909581959F4F0C943A
:10076000B203BB27FB015527AA27880F991FAA1F91
:10077000A41710F0A41B83955051B9F7A05DAA33BC
:1007800008F0A95DA193009779F7B111B193119287
:10079000CB010C94CB03DC01FC01672F7191772313
:1007A000E1F7329704C07C916D9370836291AE172C
:0A07B000BF07C8F30895F894FFCFC7
:1007BA000B010000180120000A0D0068656C6C6FBF
:0207CA000A0023
:00000001FF
