:100000000C9434000C9451000C9451000C94510049
:100010000C9451000C9451000C9451000C9451001C
:100020000C9451000C9451000C9451000C9451000C
:100030000C9451000C9451000C9451000C945100FC
:100040000C9451000C9451000C9451000C945100EC
:100050000C9451000C9451000C9451000C945100DC
:100060000C9451000C94510011241FBECFEFD8E026
:10007000DEBFCDBF11E0A0E0B1E0E8E6FBE002C0EA
:1000800005900D92AE32B107D9F721E0AEE2B1E0B2
:1000900001C01D92A233B207E1F70E948A010C94BD
:1000A000B2050C940000CF93DF93CDB7DEB781EC9F
:1000B00090E028E0FC01208382EC90E026E8FC013F
:1000C000208384EC90E020E130E0FC013183208348
:1000D0000000DF91CF910895CF93DF931F92CDB7AA
:1000E000DEB7898380EC90E0FC018081882F90E06E
:1000F0008072992721E0892B09F020E0222309F062
:10010000F1CF86EC90E02981FC01208300000F9064
:10011000DF91CF910895CF93DF9300D000D000D02E
:10012000CDB7DEB78D836E8361E070E081E090E053
:100130000E94F3039C838B838E81482F50E08D8136
:10014000882F90E02B813C81B9010E946F058B8143
:100150009C819C01F90101900020E9F7CF010197F2
:10016000821B930B2B813C81820F931F2AE030E08E
:10017000FC01318320831A8219828B819C810E9429
:1001800066059C0189819A818217930788F4898189
:100190009A819C012F5F3F4F3A8329839C018B8179
:1001A0009C81820F931FFC0180810E946C00E5CF2F
:1001B0008B819C810E94A704000026960FB6F894BC
:1001C000DEBF0FBECDBFDF91CF910895CF93DF93F8
:1001D00000D000D0CDB7DEB79C838B838B819C8110
:1001E0009C01F90101900020E9F7CF010197821BE2
:1001F000930B2B813C81820F931F2AE030E0FC019E
:10020000318320831A8219828B819C810E9466052A
:100210009C0189819A818217930788F489819A8148
:100220009C012F5F3F4F3A8329839C018B819C81E6
:10023000820F931FFC0180810E946C00E5CF0000BB
:100240000F900F900F900F90DF91CF910895CF9363
:10025000DF93CDB7DEB72A970FB6F894DEBF0FBE97
:10026000CDBF98878F8369874A8762E070E081E01D
:1002700090E00E94F3039E838D831A8219821C8270
:100280001B828F8198850E9466059C0189819A81D5
:1002900082179307A0F58985282F30E089819A81FC
:1002A0008217930734F489819A8101969A8389830E
:1002B00024C08A85282F30E089819A812817390740
:1002C000ECF08B819C819C012F5F3F4F3C832B8303
:1002D0009C018D819E81280F391F89819A81AC01F3
:1002E0004F5F5F4F5A834983AC018F819885840F9C
:1002F000951FFC018081F9018083C3CF00008D81AF
:100300009E812A960FB6F894DEBF0FBECDBFDF9157
:10031000CF910895CF93DF93CDB7DEB7A9970FB6EE
:10032000F894DEBF0FBECDBF0E94530018A28CEC24
:1003300089A389A162E00E948B0088A1282F30E068
:1003400081E090E002C0880F991F2A95E2F78D8323
:100350008D81282F30E081E090E002C0880F991F46
:100360002A95E2F78E8388A1282F30E083E090E081
:1003700002C0880F991F2A95E2F78F8385E290E0EB
:10038000FC0180818AA385E290E0FC01808162E02B
:100390000E948B0085E290E020E2FC01208385E250
:1003A00090E0FC01808162E00E948B0061E070E0DF
:1003B00081E090E00E94F303998788871A8219826E
:1003C000888599850E945A039C0189819A8141E020
:1003D0008217930708F040E0442399F089819A81BD
:1003E000AC0140505F4F888599852FE031E065E290
:1003F00070E00E94680389819A8101969A838983BB
:10040000DFCF85E290E0FC01808162E00E948B00FA
:1004100088E290E0FC01808162E00E948B001C82F7
:100420001B82888599850E945A039C018B819C813F
:1004300041E08217930708F040E0442399F08B8154
:100440009C81AC0140505F4F888599852FE031E059
:1004500068E270E00E9468038B819C8101969C8316
:100460008B83DFCF88E290E0FC01808162E00E9414
:100470008B0080E191E00E94E60085E08F8F9E0175
:10048000215E3F4F88859985A90165E270E00E9451
:10049000C60362E00E948B0086E490E0FC0180814C
:1004A000882F90E09CA38BA31DA28DA18F5F8DA3AD
:1004B000082E000C990B28A1222F30E002C0880FD3
:1004C000991F2A95E2F7092E000CAA0BBB0B8EA3ED
:1004D0009FA3A8A7B9A78DA18F5F8DA3082E000C9D
:1004E000990B29A1222F30E002C0880F991F2A956D
:1004F000E2F7092E000CAA0BBB0B8EA39FA3A8A7A3
:10050000B9A78EA19FA1A8A5B9A562E00E948B0002
:100510008AE08A8786E08B8781E08C8780E48D87FC
:1005200083E08E8780EC8F879E858F85892B888BD3
:1005300062E088890E948B009E858F858923898B44
:1005400062E089890E948B009E858F8589278A8B2E
:1005500062E08A890E948B00898980958B8B62E09A
:100560008B890E948B00888980958C8B62E08C89B6
:100570000E948B008A8980958D8B62E08D890E9414
:100580008B0062E070E081E090E00E94F3039F8BBB
:100590008E8B62E070E081E090E00E94F303998F1F
:1005A000888F8CE191E09F8B8E8B8E899F890E9432
:1005B000E60081E291E0998F888F888D998D0E9465
:1005C000E60085E291E09B8F8A8F2A8D3B8D8E8994
:1005D0009F89B9010E9452058E899F890E94E60079
:1005E0008E899F890E94A704888D998D0E94A704F7
:1005F0008A8D9B8D0E94A704288D398D8E899F89B5
:10060000B9010E945D058C8F6AE08C8D0E948B0081
:100610008E899F890E9466058D8F6AE08D8D0E946C
:100620008B0082E08E8F6AE08E8D0E948B0083E4C7
:1006300090E00E9430056AE00E948B0083E490E025
:100640000E9434056AE00E948B0083E490E00E94DF
:1006500043056AE00E948B006AE083E40E948B00FD
:1006600080E290E00E943B056AE00E948B0080E0FF
:1006700090E00E94B205CF93DF9300D000D000D06D
:10068000CDB7DEB79A8389837C836B835E834D838A
:100690004D815E812B813C8189819A81B9010E94C3
:1006A0006F0526960FB6F894DEBF0FBECDBFDF9163
:1006B000CF910895CF93DF9300D0CDB7DEB79A8363
:1006C000898388E090E00F900F90DF91CF9108959B
:1006D000CF93DF93CDB7DEB72A970FB6F894DEBF7E
:1006E0000FBECDBF9C838B837E836D8358874F83E2
:1006F0003A87298762E070E081E090E00E94F3038E
:100700009A8389838F819885FC018081282F30E02E
:1007100081E090E002C0880F991F2A95E2F7282F08
:1007200089819A81FC01208389859A85FC018081D9
:10073000882371F08D819E81FC01208189819A81BD
:10074000FC018081282B8D819E81FC01208310C0BB
:100750008D819E81FC018081282F89819A81FC01F5
:10076000808180958223282F8D819E81FC012083AA
:1007700089819A810E94A70400002A960FB6F894F6
:10078000DEBF0FBECDBFDF91CF910895CF93DF9332
:10079000CDB7DEB727970FB6F894DEBF0FBECDBF3B
:1007A0009B838A837D836C835F834E838E819F814D
:1007B000FC018081282F30E081E090E002C0880FAA
:1007C000991F2A95E2F789838C819D81FC01908194
:1007D0008981892327960FB6F894DEBF0FBECDBF5F
:1007E000DF91CF9108950F931F93CF93DF93869F4F
:1007F0008001879F100D969F100D1124C8010E9443
:100800000F04EC01009729F0A80160E070E00E945D
:100810004B05CE01DF91CF911F910F9108950F935A
:100820001F93CF93DF938230910510F482E090E024
:10083000E0913001F091310120E030E0A0E0B0E043
:10084000309719F14081518102811381481759076E
:10085000C8F08417950769F4109731F012960C933D
:10086000129713961C9327C0009330011093310107
:1008700022C02115310519F04217530718F49A01C7
:10088000BD01EF01DF01F801DBCF21153105F9F0E2
:10089000281B390B2430310580F48A819B81611536
:1008A000710521F0FB019383828304C09093310191
:1008B00080933001FE01329644C0FE01E20FF31F27
:1008C0008193919322503109398328833AC0209132
:1008D0002E0130912F01232B41F420910A013091F8
:1008E0000B0130932F0120932E01209108013091AC
:1008F00009012115310541F42DB73EB740910C0196
:1009000050910D01241B350BE0912E01F0912F0128
:10091000E217F307A0F42E1B3F0B2817390778F0D6
:10092000AC014E5F5F4F2417350748F04E0F5F1F35
:1009300050932F0140932E018193919302C0E0E0E8
:10094000F0E0CF01DF91CF911F910F910895CF93E8
:10095000DF93009709F481C0FC0132971382128261
:10096000A0913001B0913101109781F42081318143
:10097000820F931F20912E0130912F0128173907E4
:1009800051F5F0932F01E0932E0167C0ED0120E0B7
:1009900030E0CE17DF0740F44A815B819E014115AC
:1009A0005105F1F0EA01F5CFD383C2834081518133
:1009B000840F951FC817D90759F488819981840F2E
:1009C000951F0296918380838A819B819383828382
:1009D0002115310529F4F0933101E09330013DC038
:1009E000E901FB83EA8349915991C40FD51FEC17A4
:1009F000FD0761F480819181840F951F0296E901C2
:100A000099838883828193819B838A83E0E0F0E0ED
:100A100012968D919C911397009719F0FD01DC01BE
:100A2000F7CF8D919C9111979D012E5F3F4F820FC3
:100A3000931F20912E0130912F012817390769F457
:100A4000309729F4109231011092300102C01382C4
:100A50001282B0932F01A0932E01DF91CF910895C0
:100A600085FD0C949F05806291110C949F05815621
:100A70008A51D8F7089591110C949F05803211F096
:100A80008930D1F708959111089581548A5108F45D
:100A9000805E855A0895DC0101C06D93415050403D
:100AA000E0F70895FB01DC010D900020E9F71197B4
:100AB00001900D920020E1F70895FB01DC018D917A
:100AC000019080190110D9F3990B0895FC01019050
:100AD0000020E9F7809590958E0F9F1F089545326D
:100AE000510520F4423010F00C947A05FB0110827D
:100AF000CB010895BB274A3031F4992322F4BDE29B
:100B0000909581959F4F0C948605BB27FB01552737
:100B1000AA27880F991FAA1FA41710F0A41B83955A
:100B20005051B9F7A05DAA3308F0A95DA1930097D1
:100B300079F7B111B1931192CB010C94A2059927C9
:100B400088270895DC01FC01672F71917723E1F775
:100B5000329704C07C916D9370836291AE17BF078A
:080B6000C8F30895F894FFCFDB
:100B6800000102030405060700003201200001000D
:100B7800504F525442205042353A20004A61636B2C
:0E0B88000031323500205269636861726400EA
:00000001FF
