:100000000C9434000C9451000C9451000C94510049
:100010000C9451000C9451000C9451000C9451001C
:100020000C9451000C9451000C9451000C9451000C
:100030000C9451000C9451000C9451000C945100FC
:100040000C9451000C9451000C9451000C945100EC
:100050000C9451000C9451000C9451000C945100DC
:100060000C9451000C94510011241FBECFEFD8E026
:10007000DEBFCDBF12E0A0E0B1E0E4E9F1E102C0F3
:1000800005900D92AE33B107D9F722E0AEE3B2E0AE
:1000900001C01D92A234B207E1F70E949F010C94A7
:1000A000C8080C940000CF93DF93CDB7DEB781EC86
:1000B00090E028E0FC01208382EC90E026E8FC013F
:1000C000208384EC90E020E130E0FC013183208348
:1000D0000000DF91CF910895CF93DF931F92CDB7AA
:1000E000DEB7898380EC90E0FC018081882F90E06E
:1000F0008072992721E0892B09F020E0222309F062
:10010000F1CF86EC90E02981FC01208300000F9064
:10011000DF91CF910895CF93DF9300D000D000D02E
:10012000CDB7DEB78D836E838E81823059F488E03F
:1001300090E00196BC0181E090E00E9409079A835B
:1001400089830CC08E818A30B1F582E090E0BC01D9
:1001500081E090E00E9409079A8389838E81482F6D
:1001600050E08D81882F90E029813A81B9010E9469
:1001700085081C821B8289819A810E947C089C01CF
:100180008B819C818217930788F48B819C819C01D1
:100190002F5F3F4F3C832B839C0189819A81820F83
:1001A000931FFC0180810E946C00E5CF89819A81B8
:1001B0000E94BD0701C0000026960FB6F894DEBF6E
:1001C0000FBECDBFDF91CF910895CF93DF9300D0C5
:1001D000CDB7DEB789836A836A8189810E948B00EB
:1001E0008EE091E00E94FA0000000F900F90DF91E6
:1001F000CF910895CF93DF9300D000D0CDB7DEB775
:100200009C838B831A8219828B819C810E947C083B
:100210009C0189819A818217930788F489819A8148
:100220009C012F5F3F4F3A8329839C018B819C81E6
:10023000820F931FFC0180810E946C00E5CF0000BB
:100240000F900F900F900F90DF91CF910895CF9363
:10025000DF9300D0CDB7DEB79A83898389819A81F5
:100260000E94FA008EE091E00E94FA0000000F90D8
:100270000F90DF91CF910895CF93DF93CDB7DEB785
:100280002A970FB6F894DEBF0FBECDBF98878F8335
:1002900069874A8762E070E081E090E00E94090788
:1002A0009E838D831A8219821C821B828F8198857E
:1002B0000E947C089C0189819A8182179307A0F58E
:1002C0008985282F30E089819A818217930734F439
:1002D00089819A8101969A83898324C08A85282FEF
:1002E00030E089819A8128173907ECF08B819C8155
:1002F0009C012F5F3F4F3C832B839C018D819E810E
:10030000280F391F89819A81AC014F5F5F4F5A8353
:100310004983AC018F819885840F951FFC018081F2
:10032000F9018083C3CF00008D819E812A960FB68C
:10033000F894DEBF0FBECDBFDF91CF910895CF936C
:10034000DF93CDB7DEB7E1970FB6F894DEBF0FBEEF
:10035000CDBF0E94530018A68CEC89A781E191E0E3
:100360000E94270189A562E00E94E50088A5282F48
:1003700030E081E090E002C0880F991F2A95E2F7F3
:100380008D838D81282F30E081E090E002C0880FBE
:10039000991F2A95E2F78E8388A5282F30E083E005
:1003A00090E002C0880F991F2A95E2F78F8385E2BB
:1003B00090E0FC0180818AA782E291E00E942701FF
:1003C00085E290E0FC01808162E00E94E50085E228
:1003D00090E020E2FC01208381E491E00E9427016B
:1003E00085E290E0FC01808162E00E94E50061E02E
:1003F00070E081E090E00E940907998788871A825F
:100400001982888599850E949B039C0189819A8124
:1004100041E08217930708F040E04423A9F01FA2AF
:1004200089819A81AC014A5F5E4F9E01295D3F4FF1
:100430008885998565E270E00E94A90389819A8187
:1004400001969A838983DDCF8FE591E00E94270191
:1004500085E290E0FC01808162E00E94E5008DE78A
:1004600091E00E94270188E290E0FC01808162E037
:100470000E94E5001C821B82888599850E949B034F
:100480009C018B819C8141E08217930708F040E03A
:100490004423B1F081E08EA38B819C81AC014A5F43
:1004A0005E4F9E012A5D3F4F8885998568E270E026
:1004B0000E94A9038B819C8101969C838B83DCCF56
:1004C0008EE891E00E94270188E290E0FC018081A3
:1004D00062E00E94E5008DEA91E00E94270185E03C
:1004E0008DA39E012B5D3F4F88859985A90165E20B
:1004F00070E00E94070462E00E94E50086E490E05C
:10050000FC018081882F90E09CA78BA71DA68DA55C
:100510008F5F8DA7082E000C990B28A5222F30E0A5
:1005200002C0880F991F2A95E2F7092E000CAA0B2A
:10053000BB0B8EA79FA7A8ABB9AB8DA58F5F8DA76F
:10054000082E000C990B29A5222F30E002C0880F3D
:10055000991F2A95E2F7092E000CAA0BBB0B8EA758
:100560009FA7A8ABB9AB8EA59FA5A8A9B9A962E022
:100570000E94E5008AE08A8786E08B8781E08C878D
:1005800080E48D8783E08E8780EC8F879E858F85C2
:10059000892B888B62E088890E94E5009E858F8583
:1005A0008923898B62E089890E94E5009E858F8579
:1005B00089278A8B62E08A890E94E5008989809573
:1005C0008B8B62E08B890E94E500888980958C8BFB
:1005D00062E08C890E94E5008A8980958D8B62E0BB
:1005E0008D890E94E50062E070E081E090E00E9469
:1005F00009079F8B8E8B62E070E081E090E00E94A3
:100600000907998F888F89EB91E09F8B8E8B8E895C
:100610009F890E9427018EEB91E0998F888F888DAA
:10062000998D0E94270182EC91E09B8F8A8F8BEC41
:1006300091E00E9427012A8D3B8D8E899F89B90107
:100640000E9468088E899F890E9427018E899F8950
:100650000E94BD07888D998D0E94BD078A8D9B8D54
:100660000E94BD078FED91E00E942701288D398DF2
:100670008E899F89B9010E9473088C8F6AE08C8DE6
:100680000E94E50084EF91E00E9427018E899F89F6
:100690000E947C088D8F6AE08D8D0E94E50082E0CB
:1006A0008E8F6AE08E8D0E94E5008EE092E00E94BF
:1006B000270183E490E00E9446086AE00E94E5007A
:1006C00083E490E00E944A086AE00E94E50083E427
:1006D00090E00E9459086AE00E94E5006AE083E425
:1006E0000E94E50080E290E00E9451086AE00E94CA
:1006F000E50085E292E00E94270162E070E081E07F
:1007000090E00E94090798A38F8F80E090E0A6E90F
:10071000B3E489A39AA3ABA3BCA39E012F5D3F4F73
:100720008F8D98A1A90165E270E00E94340480E0F9
:1007300090E00E94C808CF93DF9300D0CDB7DEB71A
:100740009A83898388E090E00F900F90DF91CF919A
:100750000895CF93DF93CDB7DEB72A970FB6F894FD
:10076000DEBF0FBECDBF9C838B837E836D83588796
:100770004F833A87298762E070E081E090E00E9431
:1007800009079A8389838F819885FC018081282FAE
:1007900030E081E090E002C0880F991F2A95E2F7CF
:1007A000282F89819A81FC01208389859A85FC0103
:1007B0008081882371F08D819E81FC012081898157
:1007C0009A81FC018081282B8D819E81FC012083F0
:1007D00010C08D819E81FC018081282F89819A81A2
:1007E000FC01808180958223282F8D819E81FC01D0
:1007F000208389819A810E94BD0700002A960FB646
:10080000F894DEBF0FBECDBFDF91CF910895CF9397
:10081000DF93CDB7DEB727970FB6F894DEBF0FBED4
:10082000CDBF9B838A837D836C835F834E838E8160
:100830009F81FC018081282F30E081E090E002C0A0
:10084000880F991F2A95E2F789838C819D81FC018D
:1008500090818981892327960FB6F894DEBF0FBE59
:10086000CDBFDF91CF910895CF93DF93CDB7DEB7A2
:10087000A3970FB6F894DEBF0FBECDBF9F8F8E8FAC
:1008800079A368A35BA34AA31D8E8AA19BA1FC0147
:1008900080819181A281B38120E030E040E050E48A
:1008A000BC01CD010E948105DC01CB0189839A83C3
:1008B000AB83BC8320E030E04AE753E469817A816E
:1008C0008B819C810E949C06DC01CB018B8B9C8BD5
:1008D000AD8BBE8B20E030E040E85FE36B897C8924
:1008E0008D899E890E947C0588232CF481E090E00C
:1008F000988F8F8B3EC020E03FEF4FE757E46B8926
:100900007C898D899E890E949706181644F520E0FF
:1009100030E040E251E469817A818B819C810E94C0
:100920009C06DC01CB01BC01CD010E94F305DC017A
:10093000CB01988F8F8B8F89988D892B21F189E13D
:1009400090E09A8F898F898D9A8D0197F1F79A8F10
:10095000898F8F89988D0197988F8F8BECCF6B89BA
:100960007C898D899E890E94F305DC01CB01988FDB
:100970008F8B8F89988D9C8F8B8F8B8D9C8D019702
:10098000F1F79C8F8B8F8D8D91E0980F9D8F81E07B
:100990009F3F08F480E08195F92FF81B8F2F282FB7
:1009A00030E081E090E002C0880F991F2A95E2F7BD
:1009B000282F88A199A1FC0120838AA19BA1FC0179
:1009C00080819181A281B38120E030E040E050E459
:1009D000BC01CD010E948105DC01CB018D839E838A
:1009E000AF83B88720E030E04AE753E46D817E8131
:1009F0008F8198850E949C06DC01CB0189879A87AC
:100A0000AB87BC8720E030E040E85FE369857A850A
:100A10008B859C850E947C0588232CF481E090E0E6
:100A20009E878D873FC020E03FEF4FE757E4698501
:100A30007A858B859C850E94970618164CF520E0D8
:100A400030E040E251E46D817E818F8198850E9483
:100A50009C06DC01CB01BC01CD010E94F305DC0149
:100A6000CB019E878D878D859E85892B09F40DCFBF
:100A700089E190E0988B8F878F8598890197F1F7AE
:100A8000988B8F878D859E8501979E878D87EBCF6D
:100A900069857A858B859C850E94F305DC01CB01F5
:100AA0009E878D878D859E859A8B898B89899A896A
:100AB0000197F1F79A8B898BE8CECF93DF9300D023
:100AC00000D000D0CDB7DEB79A8389837C836B8357
:100AD0005E834D834D815E812B813C8189819A812A
:100AE000B9010E94850826960FB6F894DEBF0FBEA6
:100AF000CDBFDF91CF9108950E94220608F481E0D6
:100B000008950E9495050C945D060E94560658F0C3
:100B10000E944F0640F029F45F3F29F00C944606EE
:100B200051110C9491060C944C060E946E0668F3C9
:100B30009923B1F3552391F3951B550BBB27AA2796
:100B400062177307840738F09F5F5F4F220F331FD0
:100B5000441FAA1FA9F335D00E2E3AF0E0E832D098
:100B600091505040E695001CCAF72BD0FE2F29D09B
:100B7000660F771F881FBB1F261737074807AB076D
:100B8000B0E809F0BB0B802DBF01FF2793585F4FE2
:100B90003AF09E3F510578F00C9446060C9491066D
:100BA0005F3FE4F3983ED4F3869577956795B795C4
:100BB000F7959F5FC9F7880F911D9695879597F9CF
:100BC0000895E1E0660F771F881FBB1F6217730748
:100BD0008407BA0720F0621B730B840BBA0BEE1F5D
:100BE00088F7E09508950E94760688F09F5798F060
:100BF000B92F9927B751B0F0E1F0660F771F881F22
:100C0000991F1AF0BA95C9F714C0B13091F00E943B
:100C10009006B1E008950C949006672F782F8827EE
:100C2000B85F39F0B93FCCF3869577956795B39562
:100C3000D9F73EF490958095709561957F4F8F4FD1
:100C40009F4F0895990F0008550FAA0BE0E8FEEF9B
:100C500016161706E807F907C0F012161306E40780
:100C6000F50798F0621B730B840B950B39F40A2679
:100C700061F0232B242B252B21F408950A2609F457
:100C8000A140A6958FEF811D811D089597F99F675B
:100C900080E870E060E008959FEF80EC0895002404
:100CA0000A941616170618060906089500240A94D1
:100CB00012161306140605060895092E0394000C57
:100CC00011F4882352F0BB0F40F4BF2B11F460FFE6
:100CD00004C06F5F7F4F8F4F9F4F089557FD90580F
:100CE000440F551F59F05F3F71F04795880F97FBF0
:100CF000991F61F09F3F79F08795089512161306AA
:100D00001406551FF2CF4695F1DF08C016161706D8
:100D10001806991FF1CF869571056105089408950D
:100D2000E894BB2766277727CB0197F908950E949F
:100D3000220608F48FEF08950E94AF060C945D061A
:100D40000E944F0638F00E94560620F0952311F0BD
:100D50000C9446060C944C0611240C9491060E94A7
:100D60006E0670F3959FC1F3950F50E0551F629F7B
:100D7000F001729FBB27F00DB11D639FAA27F00DF4
:100D8000B11DAA1F649F6627B00DA11D661F829F1B
:100D90002227B00DA11D621F739FB00DA11D621F00
:100DA000839FA00D611D221F749F3327A00D611D1D
:100DB000231F849F600D211D822F762F6A2F1124FF
:100DC0009F5750409AF0F1F088234AF0EE0FFF1F32
:100DD000BB1F661F771F881F91505040A9F79E3F89
:100DE000510580F00C9446060C9491065F3FE4F3A5
:100DF000983ED4F3869577956795B795F795E795DF
:100E00009F5FC1F7FE2B880F911D9695879597F9E7
:100E100008950F931F93CF93DF93869F8001879F41
:100E2000100D969F100D1124C8010E942507EC019A
:100E3000009729F0A80160E070E00E946108CE01EF
:100E4000DF91CF911F910F9108950F931F93CF932F
:100E5000DF938230910510F482E090E0E09140024F
:100E6000F091410220E030E0A0E0B0E0309719F1CD
:100E7000408151810281138148175907C8F08417B6
:100E8000950769F4109731F012960C931297139608
:100E90001C9327C0009340021093410222C02115E9
:100EA000310519F04217530718F49A01BD01EF01FB
:100EB000DF01F801DBCF21153105F9F0281B390BD3
:100EC0002430310580F48A819B816115710521F000
:100ED000FB019383828304C090934102809340027C
:100EE000FE01329644C0FE01E20FF31F81939193FD
:100EF00022503109398328833AC020913E02309133
:100F00003F02232B41F420910201309103013093E1
:100F10003F0220933E0220910001309101012115F2
:100F2000310541F42DB73EB74091040150910501C0
:100F3000241B350BE0913E02F0913F02E217F307CC
:100F4000A0F42E1B3F0B2817390778F0AC014E5F39
:100F50005F4F2417350748F04E0F5F1F50933F0235
:100F600040933E028193919302C0E0E0F0E0CF0114
:100F7000DF91CF911F910F910895CF93DF93009749
:100F800009F481C0FC01329713821282A0914002C1
:100F9000B0914102109781F420813181820F931F1B
:100FA00020913E0230913F022817390751F5F09306
:100FB0003F02E0933E0267C0ED0120E030E0CE1733
:100FC000DF0740F44A815B819E0141155105F1F034
:100FD000EA01F5CFD383C28340815181840F951FED
:100FE000C817D90759F488819981840F951F0296F3
:100FF000918380838A819B8193838283211531052C
:1010000029F4F0934102E09340023DC0E901FB83E3
:10101000EA8349915991C40FD51FEC17FD0761F47C
:1010200080819181840F951F0296E90199838883BD
:10103000828193819B838A83E0E0F0E012968D9118
:101040009C911397009719F0FD01DC01F7CF8D916A
:101050009C9111979D012E5F3F4F820F931F20910E
:101060003E0230913F022817390769F4309729F47E
:10107000109241021092400202C013821282B09379
:101080003F02A0933E02DF91CF91089585FD0C941D
:10109000B508806291110C94B50881568A51D8F731
:1010A000089591110C94B508803211F08930D1F770
:1010B00008959111089581548A5108F4805E855AEB
:1010C0000895DC0101C06D9341505040E0F7089550
:1010D000FB01DC010D900020E9F7119701900D92C2
:1010E0000020E1F70895FB01DC018D91019080194A
:1010F0000110D9F3990B0895FC0101900020E9F744
:10110000809590958E0F9F1F08954532510520F4CC
:10111000423010F00C949008FB011082CB0108952E
:10112000BB274A3031F4992322F4BDE29095819592
:101130009F4F0C949C08BB27FB015527AA27880FBB
:10114000991FAA1FA41710F0A41B83955051B9F73B
:10115000A05DAA3308F0A95DA193009779F7B111BA
:10116000B1931192CB010C94B80899278827089560
:10117000DC01FC01672F71917723E1F7329704C0FE
:101180007C916D9370836291AE17BF07C8F3089589
:04119000F894FFCF01
:1011940000004202200000010203040506070A0DB4
:1011A40000496D6167696E65727920504F525459D8
:1011B4003A00504F525442206265666F7265207344
:1011C400657474696E67204C45442050494E353A25
:1011D40000504F52544220616674657220736574E6
:1011E40074696E67204C45442050494E353A00508E
:1011F4004F525442207475726E656420616C6C2089
:101204004C45447320746F204C4F573A00504F5252
:10121400544320696E697469616C6C793A00504F6B
:10122400525443207475726E656420616C6C204C5A
:1012340045447320746F20484947483A00504F5240
:101244005442205042353A20004A61636B003132E7
:1012540035002052696368617264005465737420B8
:10126400537472696E6720636F6E6361743A0054DD
:1012740065737420537472696E6720636F6D706157
:1012840072653A004D656D2073697A6520562E5358
:101294002E20537472696E67206C656E3A00436841
:1012A4006172616368746572206F706572617469DC
:1012B4006F6E733A005465737420586D6173204CDB
:0E12C4004544733A00000102030405060700CA
:00000001FF
