:100000000C9434000C9451000C9451000C94510049
:100010000C9451000C9451000C9451000C9451001C
:100020000C9451000C9451000C9451000C9451000C
:100030000C9451000C9451000C9451000C945100FC
:100040000C9451000C9451000C9451000C945100EC
:100050000C9451000C9451000C9451000C945100DC
:100060000C9451000C94510011241FBECFEFD8E026
:10007000DEBFCDBF12E0A0E0B1E0E8ECFAE002C0E4
:1000800005900D92A03BB107D9F722E0A0EBB2E0BA
:1000900001C01D92A83BB207E1F70E947D010C94BC
:1000A00062050C94000088E08093C10086E880938C
:1000B000C20080E190E09093C5008093C400089551
:1000C0009091C00095FFFCCF8093C60008950F93D8
:1000D0001F93CF93DF93082F162F623099F16A3068
:1000E00029F0DF91CF911F910F91089562E070E0A8
:1000F00081E090E00E94C003EC01412F50E0BE017E
:10010000802F90E00E941F05DE0120E030E0FE011C
:1001100001900020E9F73197EC1BFD0B2E173F07EC
:1001200050F42F5F3F4F9D918091C00085FFFCCF21
:100130009093C600ECCFCE01DF91CF911F910F912C
:100140000C94740469E070E081E090E00E94C003C8
:10015000EC01D3CFCF93DF93DC01EC0120E030E062
:10016000FD0101900020E9F73197EA1BFB0B2E17E8
:100170003F0750F42F5F3F4F89919091C00095FF4A
:10018000FCCF8093C600ECCFDF91CF9108950E9401
:1001900067008EE091E00C94AA000E94AA008EE015
:1001A00091E00C94AA00EF92FF920F931F93CF93CC
:1001B000DF93EC01162F042F62E070E081E090E005
:1001C0000E94C0037C01FE0101900020E9F73197F5
:1001D000AF014C1B5D0BFE0120E030E0A0E0B0E081
:1001E000612F70E010E00FC0261737074CF00217A0
:1001F000130764F0E701CA0FDB1F90819883119603
:100200002F5F3F4F31962417350770F3C701DF91F9
:10021000CF911F910F91FF90EF90089588E090E0AB
:100220000895EF92FF920F931F93CF93DF93EB010B
:100230007A01890162E070E081E090E00E94C003F1
:1002400021E030E0F701008002C0220F331F0A9442
:10025000E2F7FC012083F8014081388141110BC095
:10026000209523232883DF91CF911F910F91FF9039
:10027000EF900C947404232B2883DF91CF911F916E
:100280000F91FF90EF900C947404FB01208181E0AA
:1002900090E0FA01008002C0880F991F0A94E2F7EB
:1002A00082230895CF93DF931F92CDB7DEB7FB0172
:1002B000198221E030E04FEF52E587E04150504095
:1002C0008040E1F700C0000089818F5F898391E061
:1002D0008F3F08F490E0890FA90102C0440F551F19
:1002E0008A95E2F740835FEF82E597E051508040C6
:1002F0009040E1F700C00000DECFCF93DF93CDB791
:10030000DEB72A970FB6F894DEBF0FBECDBF88E0E8
:100310008093C10086E88093C20080E190E09093D2
:10032000C5008093C4001A868CEC898781E191E036
:100330000E94AA008EE091E00E94AA00898562E0F6
:100340000E9467008EE091E00E94AA008A858A855B
:1003500085B1888782E291E00E94AA008EE091E058
:100360000E94AA0085B162E00E9467008EE091E0E1
:100370000E94AA0080E285B981E491E00E94AA006F
:100380008EE091E00E94AA0085B162E00E946700C1
:100390008EE091E00E94AA0061E070E081E090E0D0
:1003A0000E94C0038C01E12CF12C0FC01982A7011F
:1003B0004A5F5E4F9E012F5F3F4F65E270E0C801CC
:1003C0000E9411018FEFE81AF80AC8010E940E017D
:1003D000E816F90658F38FE591E00E94AA008EE036
:1003E00091E00E94AA0085B162E00E9467008EE061
:1003F00091E00E94AA008DE791E00E94AA008EE0A1
:1004000091E00E94AA0088B162E00E9467008EE03D
:1004100091E00E94AA00E12CF12CDD24D3940FC0BE
:10042000D982A7014A5F5E4F9E012F5F3F4F68E26E
:1004300070E0C8010E9411018FEFE81AF80AC801A4
:100440000E940E01E816F90658F38EE891E00E942A
:10045000AA008EE091E00E94AA0088B162E00E94AA
:1004600067008EE091E00E94AA008DEA91E00E9470
:10047000AA008EE091E00E94AA0085E08983AE0187
:100480004F5F5F4F65E270E0C8010E94450162E086
:100490000E9467008EE091E00E94AA0086B590E07D
:1004A0009E838D831F828F818F5F8F832A85082E85
:1004B000000C990B02C0880F991F2A95E2F7092EAC
:1004C000000CAA0BBB0B89839A83AB83BC838F81FF
:1004D0008F5F8F832985082E000C990B02C0880F2F
:1004E000991F2A95E2F7092E000CAA0BBB0B8983F2
:1004F0009A83AB83BC8389819A81AB81BC8162E0A2
:100500000E9467008EE091E00E94AA0062E083EC06
:100510000E9467008EE091E00E94AA0062E080E005
:100520000E9467008EE091E00E94AA0062E083ECE6
:100530000E9467008EE091E00E94AA0062E08FEFC7
:100540000E9467008EE091E00E94AA0062E08CE3C6
:100550000E9467008EE091E00E94AA0062E08CE3B6
:100560000E9467008EE091E00E94AA0089EB91E072
:100570000E94AA008EE091E00E94AA0062E085E05D
:100580000E9467008EE091E00E94AA008FEC91E04B
:100590000E94AA008EE091E00E94AA0062E082E040
:1005A0000E9467008EE091E00E94AA0088EE91E030
:1005B0000E94AA008EE091E00E94AA008DEE91E0D8
:1005C0000E94AA008EE091E00E94AA0081EF91E0D3
:1005D0000E94AA008EE091E00E94AA0089E0E5E076
:1005E000F2E0ACEEB1E001900D928A95E1F788EE71
:1005F00091E00E94AA008EE091E00E94AA0088EE9D
:1006000091E00E9474048DEE91E00E94740485E0F4
:1006100092E00E9474048EE092E00E94AA008EE0B4
:1006200091E00E94AA006AE081E00E9467008EE0EB
:1006300091E00E94AA0083E292E00E94AA008EE06C
:1006400091E00E94AA006AE084E00E9467008EE0C8
:1006500091E00E94AA006AE082E00E9467008EE0BA
:1006600091E00E94AA008DE392E00E94AA008EE031
:1006700091E00E94AA0083E490E00E94FD046AE0F9
:100680000E9467008EE091E00E94AA0083E490E05F
:100690000E9401056AE00E9467008EE091E00E94DE
:1006A000AA0083E490E00E9410056AE00E946700BF
:1006B0008EE091E00E94AA006AE083E40E94670055
:1006C0008EE091E00E94AA0080E290E00E9408057E
:1006D0006AE00E9467008EE091E00E94AA0084E533
:1006E00092E00E94AA008EE091E00E94AA00E091B0
:1006F000B002F091B1026AE080810E9467008EE052
:1007000091E00E94AA00E091B002F091B10281E074
:1007100090E09183808383E090E09383828384E000
:1007200090E0958384836AE081E00E9467008EE018
:1007300091E00E94AA00E091B002F091B102CF01D5
:1007400002969093B1028093B0026AE082810E9487
:1007500067008EE091E00E94AA0089E692E00E9484
:10076000AA008EE091E00E94AA0062E070E081E0C1
:1007700090E00E94C00365E270E00E945201FFCF4A
:100780000F931F93CF93DF93869F8001879F100D58
:10079000969F100D1124C8010E94DC03EC01009704
:1007A00029F0A80160E070E00E941805CE01DF91F9
:1007B000CF911F910F9108950F931F93CF93DF93C4
:1007C0008230910510F482E090E0E091B602F09161
:1007D000B70220E030E0A0E0B0E0309719F14081AE
:1007E00051810281138148175907C8F08417950772
:1007F00069F4109731F012960C93129713961C938C
:1008000027C00093B6021093B70222C0211531050C
:1008100019F04217530718F49A01BD01EF01DF01E7
:10082000F801DBCF21153105F9F0281B390B2430F5
:10083000310580F48A819B816115710521F0FB01EE
:100840009383828304C09093B7028093B602FE0123
:10085000329644C0FE01E20FF31F81939193225020
:100860003109398328833AC02091B4023091B5020E
:10087000232B41F420910201309103013093B50202
:100880002093B4022091000130910101211531051E
:1008900041F42DB73EB74091040150910501241B4E
:1008A000350BE091B402F091B502E217F307A0F422
:1008B0002E1B3F0B2817390778F0AC014E5F5F4FB6
:1008C0002417350748F04E0F5F1F5093B502409331
:1008D000B4028193919302C0E0E0F0E0CF01DF9198
:1008E000CF911F910F910895CF93DF93009709F453
:1008F00081C0FC01329713821282A091B602B0919E
:10090000B702109781F420813181820F931F2091CB
:10091000B4023091B5022817390751F5F093B502AA
:10092000E093B40267C0ED0120E030E0CE17DF07AE
:1009300040F44A815B819E0141155105F1F0EA01C5
:10094000F5CFD383C28340815181840F951FC8178F
:10095000D90759F488819981840F951F0296918354
:1009600080838A819B81938382832115310529F4B9
:10097000F093B702E093B6023DC0E901FB83EA833E
:1009800049915991C40FD51FEC17FD0761F480817F
:100990009181840F951F0296E90199838883828152
:1009A00093819B838A83E0E0F0E012968D919C9185
:1009B0001397009719F0FD01DC01F7CF8D919C9101
:1009C00011979D012E5F3F4F820F931F2091B4021C
:1009D0003091B5022817390769F4309729F410923D
:1009E000B7021092B60202C013821282B093B5020F
:1009F000A093B402DF91CF91089585FD0C944F052B
:100A0000806291110C944F0581568A51D8F7089550
:100A100091110C944F05803211F08930D1F708956F
:100A20009111089581548A5108F4805E855A089581
:100A3000DC0101C06D9341505040E0F7089545320C
:100A4000510520F4423010F00C942A05FB0110826D
:100A5000CB010895BB274A3031F4992322F4BDE23B
:100A6000909581959F4F0C943605BB27FB01552728
:100A7000AA27880F991FAA1FA41710F0A41B8395FB
:100A80005051B9F7A05DAA3308F0A95DA193009772
:100A900079F7B111B1931192CB010C9452059927BA
:100AA00088270895DC01FC01672F71917723E1F716
:100AB000329704C07C916D9370836291AE17BF072B
:080AC000C8F30895F894FFCF7C
:100AC8000000B802200000010203040506070A0D11
:100AD80000496D6167696E65727920504F525459AB
:100AE8003A00504F525442206265666F7265207317
:100AF800657474696E67204C45442050494E353AF8
:100B080000504F52544220616674657220736574B8
:100B180074696E67204C45442050494E353A005060
:100B28004F525442207475726E656420616C6C205B
:100B38004C45447320746F204C4F573A00504F5225
:100B4800544320696E697469616C6C793A00504F3E
:100B5800525443207475726E656420616C6C204C2D
:100B680045447320746F20484947483A00504F5213
:100B78005442205042353A2000546573742042692B
:100B88006E617279204164646974696F6E3A0054C9
:100B98006573742042696E6172792053756274724C
:100BA800616374696F6E3A004A61636B0031323574
:100BB800005465737420537472696E6720636F6E96
:100BC8006361743A00205269636861726400546515
:100BD800737420537472696E6720636F6D706172ED
:100BE800653A004D656D2073697A6520562E532E3F
:100BF80020537472696E67206C656E3A00436861B1
:100C080072616368746572206F7065726174696F70
:100C18006E733A00506F696E746572206F706572FA
:100C28006174696F6E733A20005465737420586D4F
:100C38006173204C45447320737461727465642C2D
:100C480020636F6E6E65637420504F52544220705B
:100C5800696E7320746F204C45447320616E642064
:100C680073656520746865206D616769633A000083
:00000001FF
