:100000000C9434000C943E000C943E000C943E0082
:100010000C943E000C943E000C943E000C943E0068
:100020000C943E000C943E000C943E000C943E0058
:100030000C943E000C943E000C943E000C943E0048
:100040000C943E000C943E000C943E000C943E0038
:100050000C943E000C943E000C943E000C943E0028
:100060000C943E000C943E0011241FBECFEFD8E04C
:10007000DEBFCDBF0E94D4000C94F1010C940000AF
:10008000CF93DF93CDB7DEB781EC90E028E0FC01A1
:10009000208382EC90E026E8FC01208384EC90E051
:1000A00020E130E0FC01318320830000DF91CF911B
:1000B0000895CF93DF931F92CDB7DEB7898380EC8D
:1000C00090E0FC018081882F90E08072992721E0E8
:1000D000892B09F020E0222309F0F1CF86EC90E093
:1000E0002981FC01208300000F90DF91CF910895BA
:1000F000CF93DF93CDB7DEB7C450D4400FB6F8949A
:10010000DEBF0FBECDBF9E012D5F3B4FF901918336
:100110008083CE018D5F9B4FFC01808191819E0188
:100120002D5F3F4F42E050E0B9010E94B101CE0186
:1001300003969C01F90101900020E9F7CF01019796
:10014000821B930B9E012D5F3F4F820F931F2AE06E
:1001500030E0FC01318320831A821982CE0103969C
:100160000E94A8019C0189819A818217930788F4D3
:1001700089819A819C012F5F3F4F3A8329839E0199
:100180002D5F3F4F820F931FFC0180810E94590019
:10019000E5CF0000CC5FDB4F0FB6F894DEBF0FBE9B
:1001A000CDBFDF91CF910895CF93DF93CDB7DEB769
:1001B00069970FB6F894DEBF0FBECDBF0E94400016
:1001C000188A8CEC898B8989882F90E00E947800AE
:1001D0008889282F30E081E090E002C0880F991FC5
:1001E0002A95E2F789838981282F30E081E090E029
:1001F00002C0880F991F2A95E2F78A838889282FE1
:1002000030E083E090E002C0880F991F2A95E2F762
:100210008B8385E290E0FC0180818A8B86E490E00C
:10022000FC018081882F90E09C8B8B8B1D8A8D89AF
:100230008F5F8D8B082E000C990B2889222F30E0C0
:1002400002C0880F991F2A95E2F7092E000CAA0B0D
:10025000BB0B8E8B9F8BA88FB98F8D898F5F8D8BFA
:10026000082E000C990B2989222F30E002C0880F3C
:10027000991F2A95E2F7092E000CAA0BBB0B8E8B57
:100280009F8BA88FB98F8E899F89A88DB98D0E9469
:1002900078008AE08C8386E08D8381E08E8380E421
:1002A0008F8383E0888780EC898798858985892B6F
:1002B0008A878A85882F90E00E94780098858985B2
:1002C00089238B878B85882F90E00E947800988502
:1002D000898589278C878C85882F90E00E947800FB
:1002E0008B8580958D878D85882F90E00E94780082
:1002F0008A8580958E878E85882F90E00E94780071
:100300008C8580958F878F85882F90E00E9478005C
:10031000FFCFCF93DF9300D000D000D0CDB7DEB7B2
:100320009A8389837C836B835E834D834D815E8159
:100330002B813C8189819A81B9010E94B101269665
:100340000FB6F894DEBF0FBECDBFDF91CF910895F9
:10035000FC0101900020E9F7809590958E0F9F1F7A
:1003600008954532510520F4423010F00C94BC0140
:10037000FB011082CB010895BB274A3031F4992349
:1003800022F4BDE2909581959F4F0C94C801BB2744
:10039000FB015527AA27880F991FAA1FA41710F041
:1003A000A41B83955051B9F7A05DAA3308F0A95D4D
:1003B000A193009779F7B111B1931192CB010C94ED
:1003C000E101DC01FC01672F71917723E1F732979E
:1003D00004C07C916D9370836291AE17BF07C8F320
:0603E0000895F894FFCF20
:00000001FF
