:100000000C9434000C9451000C9451000C94510049
:100010000C9451000C9451000C9451000C9451001C
:100020000C9451000C9451000C9451000C9451000C
:100030000C9451000C9451000C9451000C945100FC
:100040000C9451000C9451000C9451000C945100EC
:100050000C9451000C9451000C9451000C945100DC
:100060000C9451000C94510011241FBECFEFD8E026
:10007000DEBFCDBF12E0A0E0B1E0E2E1F2E102C0FC
:1000800005900D92A034B107D9F722E0A0E4B2E0C8
:1000900001C01D92A434B207E1F70E94DE010C9466
:1000A00007090C940000CF93DF93CDB7DEB781EC46
:1000B00090E028E0FC01208382EC90E026E8FC013F
:1000C000208384EC90E020E130E0FC013183208348
:1000D0000000DF91CF910895CF93DF931F92CDB7AA
:1000E000DEB7898380EC90E0FC018081882F90E06E
:1000F0008072992721E0892B09F020E0222309F062
:10010000F1CF86EC90E02981FC01208300000F9064
:10011000DF91CF910895CF93DF9300D000D000D02E
:10012000CDB7DEB78D836E8361E070E081E090E053
:100130000E9448079C838B838E81482F50E08D81DD
:10014000882F90E02B813C81B9010E94C4081A825B
:1001500019828B819C810E94BB089C0189819A81B4
:100160008217930788F489819A819C012F5F3F4F02
:100170003A8329839C018B819C81820F931FFC0110
:1001800080810E946C00E5CF8B819C810E94FC07DE
:10019000000026960FB6F894DEBF0FBECDBFDF91EC
:1001A000CF910895CF93DF9300D000D000D0CDB78A
:1001B000DEB78D836E8361E070E081E090E00E94A5
:1001C00048079C838B838E81482F50E08D81882F38
:1001D00090E02B813C81B9010E94C4081A821982E7
:1001E0008B819C810E94BB089C0189819A81821726
:1001F000930788F489819A819C012F5F3F4F3A834E
:1002000029839C018B819C81820F931FFC0180813B
:100210000E946C00E5CF8B819C810E94FC078EE0E0
:1002200091E00E941D01000026960FB6F894DEBFF3
:100230000FBECDBFDF91CF910895CF93DF9300D054
:1002400000D0CDB7DEB79C838B831A8219828B8155
:100250009C810E94BB089C0189819A818217930727
:1002600088F489819A819C012F5F3F4F3A832983CB
:100270009C018B819C81820F931FFC0180810E94D5
:100280006C00E5CF00000F900F900F900F90DF9162
:10029000CF910895CF93DF9300D000D0CDB7DEB7D4
:1002A0009C838B831A8219828B819C810E94BB085C
:1002B0009C0189819A818217930788F489819A81A8
:1002C0009C012F5F3F4F3A8329839C018B819C8146
:1002D000820F931FFC0180810E946C00E5CF81E1B9
:1002E00091E00E941D0100000F900F900F900F9061
:1002F000DF91CF910895CF93DF93CDB7DEB72A97E3
:100300000FB6F894DEBF0FBECDBF98878F83698785
:100310004A8762E070E081E090E00E9448079E8397
:100320008D831A8219821C821B828F8198850E947C
:10033000BB089C0189819A8182179307A0F5898562
:10034000282F30E089819A818217930734F48981BC
:100350009A8101969A83898324C08A85282F30E068
:1003600089819A8128173907ECF08B819C819C0147
:100370002F5F3F4F3C832B839C018D819E81280FF3
:10038000391F89819A81AC014F5F5F4F5A8349833E
:10039000AC018F819885840F951FFC018081F90144
:1003A0008083C3CF00008D819E812A960FB6F8947A
:1003B000DEBF0FBECDBFDF91CF910895CF93DF9306
:1003C000CDB7DEB7E1970FB6F894DEBF0FBECDBF55
:1003D0000E94530018A68CEC89A783E191E00E944B
:1003E0004A0189A562E00E94D20088A5282F30E04A
:1003F00081E090E002C0880F991F2A95E2F78D8373
:100400008D81282F30E081E090E002C0880F991F95
:100410002A95E2F78E8388A5282F30E083E090E0CC
:1004200002C0880F991F2A95E2F78F8385E290E03A
:10043000FC0180818AA784E291E00E944A0185E262
:1004400090E0FC01808162E00E94D20085E290E0B1
:1004500020E2FC01208383E491E00E944A0185E2CE
:1004600090E0FC01808162E00E94D20061E070E0D7
:1004700081E090E00E944807998788871A82198254
:10048000888599850E94DA039C0189819A8141E0DF
:100490008217930708F040E04423A9F01FA2898146
:1004A0009A81AC014A5F5E4F9E01295D3F4F88856E
:1004B000998565E270E00E94E80389819A8101963E
:1004C0009A838983DDCF81E691E00E944A0185E22B
:1004D00090E0FC01808162E00E94D2008FE791E011
:1004E0000E944A0188E290E0FC01808162E00E9463
:1004F000D2001C821B82888599850E94DA039C01A8
:100500008B819C8141E08217930708F040E04423EF
:10051000B1F081E08EA38B819C81AC014A5F5E4F7C
:100520009E012A5D3F4F8885998568E270E00E94B0
:10053000E8038B819C8101969C838B83DCCF80E9CF
:1005400091E00E944A0188E290E0FC01808162E033
:100550000E94D2008FEA91E00E944A0185E08DA3BB
:100560009E012B5D3F4F88859985A90165E270E06A
:100570000E94460462E00E94D20086E490E0FC0102
:100580008081882F90E09CA78BA71DA68DA58F5FEB
:100590008DA7082E000C990B28A5222F30E002C051
:1005A000880F991F2A95E2F7092E000CAA0BBB0BA6
:1005B0008EA79FA7A8ABB9AB8DA58F5F8DA7082E7F
:1005C000000C990B29A5222F30E002C0880F991F3B
:1005D0002A95E2F7092E000CAA0BBB0B8EA79FA74A
:1005E000A8ABB9AB8EA59FA5A8A9B9A962E00E9446
:1005F000D2008AE08A8786E08B8781E08C8780E45E
:100600008D8783E08E8780EC8F879E858F85892BF1
:10061000888B62E088890E94D2009E858F8589231D
:10062000898B62E089890E94D2009E858F85892707
:100630008A8B62E08A890E94D200898980958B8B9F
:1006400062E08B890E94D200888980958C8B62E061
:100650008C890E94D2008A8980958D8B62E08D8979
:100660000E94D20062E070E081E090E00E944807C2
:100670009F8B8E8B62E070E081E090E00E944807E3
:10068000998F888F8BEB91E09F8B8E8B8E899F89C2
:100690000E944A0180EC91E0998F888F888D998D16
:1006A0000E944A0184EC91E09B8F8A8F8DEC91E04F
:1006B0000E944A012A8D3B8D8E899F89B9010E9433
:1006C000A7088E899F890E944A018E899F890E946E
:1006D000FC07888D998D0E94FC078A8D9B8D0E9456
:1006E000FC0781EE91E00E944A01288D398D8E89A8
:1006F0009F89B9010E94B2088C8F6AE08C8D0E949C
:10070000D20086EF91E00E944A018E899F890E9463
:10071000BB088D8F6AE08D8D0E94D20082E08E8FA3
:100720006AE08E8D0E94D20080E192E00E944A0130
:1007300083E490E00E9485086AE00E94D20083E48E
:1007400090E00E9489086AE00E94D20083E490E071
:100750000E9498086AE00E94D2006AE083E40E9446
:10076000D20080E290E00E9490086AE00E94D200ED
:1007700087E292E00E944A0162E070E081E090E04E
:100780000E94480798A38F8F80E090E0A6E9B3E429
:1007900089A39AA3ABA3BCA39E012F5D3F4F8F8D6E
:1007A00098A1A90165E270E00E94730480E090E0E6
:1007B0000E940709CF93DF9300D0CDB7DEB79A83AD
:1007C000898388E090E00F900F90DF91CF9108959A
:1007D000CF93DF93CDB7DEB72A970FB6F894DEBF7D
:1007E0000FBECDBF9C838B837E836D8358874F83E1
:1007F0003A87298762E070E081E090E00E94480734
:100800009A8389838F819885FC018081282F30E02D
:1008100081E090E002C0880F991F2A95E2F7282F07
:1008200089819A81FC01208389859A85FC018081D8
:10083000882371F08D819E81FC01208189819A81BC
:10084000FC018081282B8D819E81FC01208310C0BA
:100850008D819E81FC018081282F89819A81FC01F4
:10086000808180958223282F8D819E81FC012083A9
:1008700089819A810E94FC0700002A960FB6F8949D
:10088000DEBF0FBECDBFDF91CF910895CF93DF9331
:10089000CDB7DEB727970FB6F894DEBF0FBECDBF3A
:1008A0009B838A837D836C835F834E838E819F814C
:1008B000FC018081282F30E081E090E002C0880FA9
:1008C000991F2A95E2F789838C819D81FC01908193
:1008D0008981892327960FB6F894DEBF0FBECDBF5E
:1008E000DF91CF910895CF93DF93CDB7DEB7A39774
:1008F0000FB6F894DEBF0FBECDBF9F8F8E8F79A34A
:1009000068A35BA34AA31D8E8AA19BA1FC018081E1
:100910009181A281B38120E030E040E050E4BC014D
:10092000CD010E94C005DC01CB0189839A83AB8392
:10093000BC8320E030E04AE753E469817A818B810F
:100940009C810E94DB06DC01CB018B8B9C8BAD8BE9
:10095000BE8B20E030E040E85FE36B897C898D89C5
:100960009E890E94BB0588232CF481E090E0988F3B
:100970008F8B3EC020E03FEF4FE757E46B897C89C7
:100980008D899E890E94D606181644F520E030E035
:1009900040E251E469817A818B819C810E94DB066F
:1009A000DC01CB01BC01CD010E943206DC01CB0190
:1009B000988F8F8B8F89988D892B21F189E190E019
:1009C0009A8F898F898D9A8D0197F1F79A8F898FE8
:1009D0008F89988D0197988F8F8BECCF6B897C894D
:1009E0008D899E890E943206DC01CB01988F8F8B06
:1009F0008F89988D9C8F8B8F8B8D9C8D0197F1F7B4
:100A00009C8F8B8F8D8D91E0980F9D8F81E09F3F04
:100A100008F480E08195F92FF81B8F2F282F30E004
:100A200081E090E002C0880F991F2A95E2F7282FF5
:100A300088A199A1FC0120838AA19BA1FC0180814E
:100A40009181A281B38120E030E040E050E4BC011C
:100A5000CD010E94C005DC01CB018D839E83AF8355
:100A6000B88720E030E04AE753E46D817E818F81D2
:100A700098850E94DB06DC01CB0189879A87AB87CA
:100A8000BC8720E030E040E85FE369857A858B85AC
:100A90009C850E94BB0588232CF481E090E09E8712
:100AA0008D873FC020E03FEF4FE757E469857A85A7
:100AB0008B859C850E94D60618164CF520E030E008
:100AC00040E251E46D817E818F8198850E94DB0632
:100AD000DC01CB01BC01CD010E943206DC01CB015F
:100AE0009E878D878D859E85892B09F40DCF89E1A1
:100AF00090E0988B8F878F8598890197F1F7988B75
:100B00008F878D859E8501979E878D87EBCF698521
:100B10007A858B859C850E943206DC01CB019E87FD
:100B20008D878D859E859A8B898B89899A89019776
:100B3000F1F79A8B898BE8CECF93DF9300D000D06A
:100B400000D0CDB7DEB79A8389837C836B835E83C5
:100B50004D834D815E812B813C8189819A81B901D0
:100B60000E94C40826960FB6F894DEBF0FBECDBF14
:100B7000DF91CF9108950E94610608F481E0089505
:100B80000E94D4050C949C060E94950658F00E9481
:100B90008E0640F029F45F3F29F00C948506511130
:100BA0000C94D0060C948B060E94AD0668F3992332
:100BB000B1F3552391F3951B550BBB27AA27621759
:100BC0007307840738F09F5F5F4F220F331F441F66
:100BD000AA1FA9F335D00E2E3AF0E0E832D091509A
:100BE0005040E695001CCAF72BD0FE2F29D0660F87
:100BF000771F881FBB1F261737074807AB07B0E8CA
:100C000009F0BB0B802DBF01FF2793585F4F3AF0CF
:100C10009E3F510578F00C9485060C94D0065F3FFA
:100C2000E4F3983ED4F3869577956795B795F79555
:100C30009F5FC9F7880F911D9695879597F908953D
:100C4000E1E0660F771F881FBB1F621773078407D9
:100C5000BA0720F0621B730B840BBA0BEE1F88F7E8
:100C6000E09508950E94B50688F09F5798F0B92F37
:100C70009927B751B0F0E1F0660F771F881F991FD1
:100C80001AF0BA95C9F714C0B13091F00E94CF069E
:100C9000B1E008950C94CF06672F782F8827B85FAE
:100CA00039F0B93FCCF3869577956795B395D9F729
:100CB0003EF490958095709561957F4F8F4F9F4F33
:100CC0000895990F0008550FAA0BE0E8FEEF1616DD
:100CD0001706E807F907C0F012161306E407F50730
:100CE00098F0621B730B840B950B39F40A2661F0A4
:100CF000232B242B252B21F408950A2609F4A14047
:100D0000A6958FEF811D811D089597F99F6780E853
:100D100070E060E008959FEF80EC089500240A944D
:100D20001616170618060906089500240A941216C6
:100D30001306140605060895092E0394000C11F4F9
:100D4000882352F0BB0F40F4BF2B11F460FF04C0A6
:100D50006F5F7F4F8F4F9F4F089557FD9058440FFF
:100D6000551F59F05F3F71F04795880F97FB991F0A
:100D700061F09F3F79F087950895121613061406C7
:100D8000551FF2CF4695F1DF08C016161706180654
:100D9000991FF1CF86957105610508940895E8942F
:100DA000BB2766277727CB0197F908950E94610634
:100DB00008F48FEF08950E94EE060C949C060E94A2
:100DC0008E0638F00E94950620F0952311F00C94C1
:100DD00085060C948B0611240C94D0060E94AD0657
:100DE00070F3959FC1F3950F50E0551F629FF0017E
:100DF000729FBB27F00DB11D639FAA27F00DB11D97
:100E0000AA1F649F6627B00DA11D661F829F22271F
:100E1000B00DA11D621F739FB00DA11D621F839FA6
:100E2000A00D611D221F749F3327A00D611D231F7C
:100E3000849F600D211D822F762F6A2F11249F57CA
:100E400050409AF0F1F088234AF0EE0FFF1FBB1FCD
:100E5000661F771F881F91505040A9F79E3F51058C
:100E600080F00C9485060C94D0065F3FE4F3983E26
:100E7000D4F3869577956795B795F795E7959F5F36
:100E8000C1F7FE2B880F911D9695879597F90895C8
:100E90000F931F93CF93DF93869F8001879F100D41
:100EA000969F100D1124C8010E946407EC01009761
:100EB00029F0A80160E070E00E94A008CE01DF9157
:100EC000CF911F910F9108950F931F93CF93DF93AD
:100ED0008230910510F482E090E0E0914202F091BE
:100EE000430220E030E0A0E0B0E0309719F140810B
:100EF00051810281138148175907C8F0841795075B
:100F000069F4109731F012960C93129713961C9374
:100F100027C0009342021093430222C021153105DD
:100F200019F04217530718F49A01BD01EF01DF01D0
:100F3000F801DBCF21153105F9F0281B390B2430DE
:100F4000310580F48A819B816115710521F0FB01D7
:100F50009383828304C09093430280934202FE01F4
:100F6000329644C0FE01E20FF31F81939193225009
:100F70003109398328833AC02091400230914102DF
:100F8000232B41F42091020130910301309341025F
:100F9000209340022091000130910101211531057B
:100FA00041F42DB73EB74091040150910501241B37
:100FB000350BE0914002F0914102E217F307A0F4F3
:100FC0002E1B3F0B2817390778F0AC014E5F5F4F9F
:100FD0002417350748F04E0F5F1F5093410240938E
:100FE00040028193919302C0E0E0F0E0CF01DF91F5
:100FF000CF911F910F910895CF93DF93009709F43C
:1010000081C0FC01329713821282A0914202B091FA
:101010004302109781F420813181820F931F209128
:101020004002309141022817390751F5F0934102EF
:10103000E093400267C0ED0120E030E0CE17DF070B
:1010400040F44A815B819E0141155105F1F0EA01AE
:10105000F5CFD383C28340815181840F951FC81778
:10106000D90759F488819981840F951F029691833D
:1010700080838A819B81938382832115310529F4A2
:10108000F0934302E09342023DC0E901FB83EA830F
:1010900049915991C40FD51FEC17FD0761F4808168
:1010A0009181840F951F0296E9019983888382813B
:1010B00093819B838A83E0E0F0E012968D919C916E
:1010C0001397009719F0FD01DC01F7CF8D919C91EA
:1010D00011979D012E5F3F4F820F931F2091400279
:1010E000309141022817390769F4309729F410929A
:1010F00043021092420202C013821282B093410254
:10110000A0934002DF91CF91089585FD0C94F408DF
:10111000806291110C94F40881568A51D8F7089591
:1011200091110C94F408803211F08930D1F70895B0
:101130009111089581548A5108F4805E855A08956A
:10114000DC0101C06D9341505040E0F70895FB0170
:10115000DC010D900020E9F7119701900D9200201D
:10116000E1F70895FB01DC018D91019080190110D8
:10117000D9F3990B0895FC0101900020E9F78095BF
:1011800090958E0F9F1F08954532510520F44230EF
:1011900010F00C94CF08FB011082CB010895BB27FF
:1011A0004A3031F4992322F4BDE2909581959F4F06
:1011B0000C94DB08BB27FB015527AA27880F991F32
:1011C000AA1FA41710F0A41B83955051B9F7A05D76
:1011D000AA3308F0A95DA193009779F7B111B193F3
:1011E0001192CB010C94F708992788270895DC0108
:1011F000FC01672F71917723E1F7329704C07C914E
:101200006D9370836291AE17BF07C8F30895F89489
:02121000FFCF0E
:1012120000004402200000010203040506070A0D33
:10122200000A00496D6167696E65727920504F52FC
:1012320054593A00504F525442206265666F7265AB
:101242002073657474696E67204C45442050494E82
:10125200353A00504F5254422061667465722073D1
:10126200657474696E67204C45442050494E353A86
:1012720000504F525442207475726E656420616C46
:101282006C204C45447320746F204C4F573A0050E9
:101292004F52544320696E697469616C6C793A00EB
:1012A200504F525443207475726E656420616C6CA9
:1012B200204C45447320746F20484947483A0050F7
:1012C2004F525442205042353A20004A61636B002B
:1012D200313235002052696368617264005465736B
:1012E2007420537472696E6720636F6E6361743A1F
:1012F200005465737420537472696E6720636F6D56
:10130200706172653A004D656D2073697A65205689
:101312002E532E20537472696E67206C656E3A00EC
:1013220043686172616368746572206F706572618F
:1013320074696F6E733A005465737420586D6173EB
:10134200204C4544733A00000102030405060700DD
:00000001FF
