:100000000C9434000C9451000C9451000C94510049
:100010000C9451000C9451000C9451000C9451001C
:100020000C9451000C9451000C9451000C9451000C
:100030000C9451000C9451000C9451000C945100FC
:100040000C9451000C9451000C9451000C945100EC
:100050000C9451000C9451000C9451000C945100DC
:100060000C9451000C94510011241FBECFEFD8E026
:10007000DEBFCDBF11E0A0E0B1E0EAECF9E002C0E4
:1000800005900D92A032B107D9F721E0A0E2B1E0CE
:1000900001C01D92A432B207E1F70E9493010C94B3
:1000A000E3040C940000CF93DF93CDB7DEB781EC6F
:1000B00090E028E0FC01208382EC90E026E8FC013F
:1000C000208384EC90E020E130E0FC013183208348
:1000D0000000DF91CF910895CF93DF931F92CDB7AA
:1000E000DEB7898380EC90E0FC018081882F90E06E
:1000F0008072992721E0892B09F020E0222309F062
:10010000F1CF86EC90E02981FC01208300000F9064
:10011000DF91CF910895CF93DF9300D000D000D02E
:10012000CDB7DEB78D836E8361E070E081E090E053
:100130000E9442039C838B838E81482F50E08D81E7
:10014000882F90E02B813C81B9010E94A3048B8110
:100150009C819C01F90101900020E9F7CF010197F2
:10016000821B930B2B813C81820F931F2AE030E08E
:10017000FC01318320831A8219828B819C810E9429
:100180009A049C0189819A818217930788F4898156
:100190009A819C012F5F3F4F3A8329839C018B8179
:1001A0009C81820F931FFC0180810E946C00E5CF2F
:1001B0008B819C810E94F603000026960FB6F8946E
:1001C000DEBF0FBECDBFDF91CF910895CF93DF93F8
:1001D00000D000D0CDB7DEB79C838B838B819C8110
:1001E0009C01F90101900020E9F7CF010197821BE2
:1001F000930B2B813C81820F931F2AE030E0FC019E
:10020000318320831A8219828B819C810E949A04F7
:100210009C0189819A818217930788F489819A8148
:100220009C012F5F3F4F3A8329839C018B819C81E6
:10023000820F931FFC0180810E946C00E5CF0000BB
:100240000F900F900F900F90DF91CF910895CF9363
:10025000DF93CDB7DEB72A970FB6F894DEBF0FBE97
:10026000CDBF98878F8369874A8762E070E081E01D
:1002700090E00E9442039E838D831A8219821C8221
:100280001B828F8198850E949A049C0189819A81A2
:1002900082179307A0F58985282F30E089819A81FC
:1002A0008217930734F489819A8101969A8389830E
:1002B00024C08A85282F30E089819A812817390740
:1002C000ECF08B819C819C012F5F3F4F3C832B8303
:1002D0009C018D819E81280F391F89819A81AC01F3
:1002E0004F5F5F4F5A834983AC018F819885840F9C
:1002F000951FFC018081F9018083C3CF00008D81AF
:100300009E812A960FB6F894DEBF0FBECDBFDF9157
:10031000CF910895CF93DF93CDB7DEB788E090E01B
:10032000DF91CF910895CF93DF93CDB7DEB7A79735
:100330000FB6F894DEBF0FBECDBF0E9453001E8ED5
:100340008CEC8F8F8F8D62E00E948B008E8D282F1A
:1003500030E081E090E002C0880F991F2A95E2F713
:100360008D838D81282F30E081E090E002C0880FDE
:10037000991F2A95E2F78E838E8D282F30E083E037
:1003800090E002C0880F991F2A95E2F78F8385E2DB
:1003900090E0FC01808188A385E290E0FC018081EF
:1003A00062E00E948B0085E290E020E2FC01208365
:1003B00085E290E0FC01808162E00E948B0081E098
:1003C00088871A8219820E948A019C0189819A81F8
:1003D00041E08217930708F040E0442309F1898146
:1003E0009A8180509F4FFC018081282F30E081E06E
:1003F00090E0AC0102C0440F551F2A95E2F785E258
:1004000090E025E230E0F9012081322F242F232BC8
:10041000FC01208389819A8101969A838983D3CFB5
:1004200085E290E0FC01808162E00E948B0088E21E
:1004300090E0FC01808162E00E948B001C821B82A4
:100440000E948A019C018B819C8141E08217930765
:1004500008F040E0442309F18B819C8180509F4F3C
:10046000FC018081282F30E081E090E0AC0102C0E7
:10047000440F551F2A95E2F788E290E028E230E029
:10048000F9012081322F242F232BFC0120838B8123
:100490009C8101969C838B83D3CF88E290E0FC0102
:1004A000808162E00E948B0086E490E0FC01808104
:1004B000882F90E09AA389A31BA28BA18F5F8BA3A7
:1004C000082E000C990B2E8D222F30E002C0880FD1
:1004D000991F2A95E2F7092E000CAA0BBB0B8CA3DF
:1004E0009DA3AEA3BFA38BA18F5F8BA3082E000C8F
:1004F000990B2F8D222F30E002C0880F991F2A956B
:10050000E2F7092E000CAA0BBB0B8CA39DA3AEA394
:10051000BFA38CA19DA1AEA1BFA162E00E948B00F0
:100520008AE0898786E08A8781E08B8780E48C87F0
:1005300083E08D8780EC8E879D858E85892B8F87C4
:1005400062E08F850E948B009D858E858923888B34
:1005500062E088890E948B009D858E858927898B22
:1005600062E089890E948B00888980958A8B62E08D
:100570008A890E948B008F8580958B8B62E08B89A6
:100580000E948B00898980958C8B62E08C890E9407
:100590008B0062E070E081E090E00E9442039E8B5D
:1005A0008D8B62E070E081E090E00E944203988FC2
:1005B0008F8B8EE091E09E8B8D8B8D899E890E9422
:1005C000E60083E191E0988F8F8B8F89988D0E9450
:1005D000E60087E191E09A8F898F298D3A8D8D8988
:1005E0009E89B9010E9486048D899E890E94E60039
:1005F0008D899E890E94F6038F89988D0E94F6034B
:10060000898D9A8D0E94F6032F89388D8D899E8958
:10061000B9010E9491048B8F6AE08B8D0E948B0040
:100620008D899E890E949A048C8F6AE08C8D0E942D
:100630008B0082E08D8F6AE08D8D0E948B0080E0C0
:1006400090E00E94E304CF93DF9300D000D000D06D
:10065000CDB7DEB79A8389837C836B835E834D83BA
:100660004D815E812B813C8189819A81B9010E94F3
:10067000A30426960FB6F894DEBF0FBECDBFDF9160
:10068000CF9108950F931F93CF93DF93869F80019F
:10069000879F100D969F100D1124C8010E945E03C4
:1006A000EC01009729F0A80160E070E00E947F044F
:1006B000CE01DF91CF911F910F9108950F931F935A
:1006C000CF93DF938230910510F482E090E0E091C7
:1006D0002201F091230120E030E0A0E0B0E030976B
:1006E00019F1408151810281138148175907C8F0DF
:1006F0008417950769F4109731F012960C931297AE
:1007000013961C9327C0009322011093230122C04B
:100710002115310519F04217530718F49A01BD014C
:10072000EF01DF01F801DBCF21153105F9F0281BBE
:10073000390B2430310580F48A819B816115710564
:1007400021F0FB019383828304C090932301809363
:100750002201FE01329644C0FE01E20FF31F819395
:10076000919322503109398328833AC02091200186
:1007700030912101232B41F420910A0130910B018A
:10078000309321012093200120910801309109012B
:100790002115310541F42DB73EB740910C01509120
:1007A0000D01241B350BE0912001F0912101E2178E
:1007B000F307A0F42E1B3F0B2817390778F0AC0184
:1007C0004E5F5F4F2417350748F04E0F5F1F509361
:1007D0002101409320018193919302C0E0E0F0E079
:1007E000CF01DF91CF911F910F910895CF93DF93A8
:1007F000009709F481C0FC01329713821282A09104
:100800002201B0912301109781F420813181820F60
:10081000931F20912001309121012817390751F5AC
:10082000F0932101E093200167C0ED0120E030E06A
:10083000CE17DF0740F44A815B819E0141155105C7
:10084000F1F0EA01F5CFD383C28340815181840F57
:10085000951FC817D90759F488819981840F951F6E
:100860000296918380838A819B8193838283211561
:10087000310529F4F0932301E09322013DC0E90101
:10088000FB83EA8349915991C40FD51FEC17FD07EB
:1008900061F480819181840F951F0296E90199830B
:1008A0008883828193819B838A83E0E0F0E01296C3
:1008B0008D919C911397009719F0FD01DC01F7CF02
:1008C0008D919C9111979D012E5F3F4F820F931F39
:1008D00020912001309121012817390769F43097C0
:1008E00029F4109223011092220102C01382128275
:1008F000B0932101A0932001DF91CF910895DC01F5
:1009000001C06D9341505040E0F70895FB01DC01B8
:100910000D900020E9F7119701900D920020E1F76A
:100920000895FB01DC018D91019080190110D9F32C
:10093000990B0895FC0101900020E9F780959095AE
:100940008E0F9F1F08954532510520F4423010F05C
:100950000C94AE04FB011082CB010895BB274A30F2
:1009600031F4992322F4BDE2909581959F4F0C9428
:10097000BA04BB27FB015527AA27880F991FAA1F76
:10098000A41710F0A41B83955051B9F7A05DAA33AA
:1009900008F0A95DA193009779F7B111B193119275
:1009A000CB010C94D304DC01FC01672F71917723F8
:1009B000E1F7329704C07C916D9370836291AE171A
:0A09C000BF07C8F30895F894FFCFB5
:1009CA0000010203040506070000240120004A6111
:1009DA00636B0031323500205269636861726400CA
:00000001FF
