:100000000C9434000C9451000C9451000C94510049
:100010000C9451000C9451000C9451000C9451001C
:100020000C9451000C9451000C9451000C9451000C
:100030000C9451000C9451000C9451000C945100FC
:100040000C9451000C9451000C9451000C945100EC
:100050000C9451000C9451000C9451000C945100DC
:100060000C9451000C94510011241FBECFEFD8E026
:10007000DEBFCDBF12E0A0E0B1E0E0E6FCE002C0F0
:1000800005900D92A433B107D9F722E0A4E3B2E0C2
:1000900001C01D92A833B207E1F70E94DE010C9463
:1000A0002E060C940000CF93DF93CDB7DEB781EC22
:1000B00090E028E0FC01208382EC90E026E8FC013F
:1000C000208384EC90E020E130E0FC013183208348
:1000D0000000DF91CF910895CF93DF931F92CDB7AA
:1000E000DEB7898380EC90E0FC018081882F90E06E
:1000F0008072992721E0892B09F020E0222309F062
:10010000F1CF86EC90E02981FC01208300000F9064
:10011000DF91CF910895CF93DF9300D000D000D02E
:10012000CDB7DEB78D836E8361E070E081E090E053
:100130000E946F049C838B838E81482F50E08D81B9
:10014000882F90E02B813C81B9010E94EB051A8237
:1001500019828B819C810E94E2059C0189819A8190
:100160008217930788F489819A819C012F5F3F4F02
:100170003A8329839C018B819C81820F931FFC0110
:1001800080810E946C00E5CF8B819C810E942305B9
:10019000000026960FB6F894DEBF0FBECDBFDF91EC
:1001A000CF910895CF93DF9300D000D000D0CDB78A
:1001B000DEB78D836E8361E070E081E090E00E94A5
:1001C0006F049C838B838E81482F50E08D81882F14
:1001D00090E02B813C81B9010E94EB051A821982C3
:1001E0008B819C810E94E2059C0189819A81821702
:1001F000930788F489819A819C012F5F3F4F3A834E
:1002000029839C018B819C81820F931FFC0180813B
:100210000E946C00E5CF8B819C810E94230580E1C8
:1002200091E00E941D01000026960FB6F894DEBFF3
:100230000FBECDBFDF91CF910895CF93DF9300D054
:1002400000D0CDB7DEB79C838B831A8219828B8155
:100250009C810E94E2059C0189819A818217930703
:1002600088F489819A819C012F5F3F4F3A832983CB
:100270009C018B819C81820F931FFC0180810E94D5
:100280006C00E5CF00000F900F900F900F90DF9162
:10029000CF910895CF93DF9300D000D0CDB7DEB7D4
:1002A0009C838B831A8219828B819C810E94E20538
:1002B0009C0189819A818217930788F489819A81A8
:1002C0009C012F5F3F4F3A8329839C018B819C8146
:1002D000820F931FFC0180810E946C00E5CF83E1B7
:1002E00091E00E941D0100000F900F900F900F9061
:1002F000DF91CF910895CF93DF93CDB7DEB72A97E3
:100300000FB6F894DEBF0FBECDBF98878F83698785
:100310004A8762E070E081E090E00E946F049E8373
:100320008D831A8219821C821B828F8198850E947C
:10033000E2059C0189819A8182179307A0F589853E
:10034000282F30E089819A818217930734F48981BC
:100350009A8101969A83898324C08A85282F30E068
:1003600089819A8128173907ECF08B819C819C0147
:100370002F5F3F4F3C832B839C018D819E81280FF3
:10038000391F89819A81AC014F5F5F4F5A8349833E
:10039000AC018F819885840F951FFC018081F90144
:1003A0008083C3CF00008D819E812A960FB6F8947A
:1003B000DEBF0FBECDBFDF91CF910895CF93DF9306
:1003C000CDB7DEB7A9970FB6F894DEBF0FBECDBF8D
:1003D0000E94530018A28CEC89A385E191E00E9451
:1003E0004A0189A162E00E94D20088A1282F30E052
:1003F00081E090E002C0880F991F2A95E2F78D8373
:100400008D81282F30E081E090E002C0880F991F95
:100410002A95E2F78E8388A1282F30E083E090E0D0
:1004200002C0880F991F2A95E2F78F8385E290E03A
:10043000FC0180818AA386E291E00E944A0185E264
:1004400090E0FC01808162E00E94D20085E290E0B1
:1004500020E2FC01208385E491E00E944A0185E2CC
:1004600090E0FC01808162E00E94D20061E070E0D7
:1004700081E090E00E946F04998788871A82198230
:10048000888599850E94B7039C0189819A8141E002
:100490008217930708F040E0442399F089819A81FC
:1004A000AC014A5F5E4F888599852FE031E065E2B7
:1004B00070E00E94C50389819A8101969A8389839D
:1004C000DFCF83E691E00E944A0185E290E0FC01E3
:1004D000808162E00E94D20081E891E00E944A019E
:1004E00088E290E0FC01808162E00E94D2001C82E0
:1004F0001B82888599850E94B7039C018B819C8112
:1005000041E08217930708F040E0442399F08B8183
:100510009C81AC014A5F5E4F888599852EE031E071
:1005200068E270E00E94C5038B819C8101969C83E8
:100530008B83DFCF82E991E00E944A0188E290E05C
:10054000FC01808162E00E94D20081EB91E00E9478
:100550004A0185E08F8F9E01215E3F4F88859985F6
:10056000A90165E270E00E94230462E00E94D200CB
:1005700086E490E0FC018081882F90E09CA38BA30F
:100580001DA28DA18F5F8DA3082E000C990B28A1B1
:10059000222F30E002C0880F991F2A95E2F7092E1A
:1005A000000CAA0BBB0B8EA39FA3A8A7B9A78DA174
:1005B0008F5F8DA3082E000C990B29A1222F30E00C
:1005C00002C0880F991F2A95E2F7092E000CAA0B8A
:1005D000BB0B8EA39FA3A8A7B9A78EA19FA1A8A577
:1005E000B9A562E00E94D2008AE08A8786E08B8704
:1005F00081E08C8780E48D8783E08E8780EC8F8715
:100600009E858F85892B888B62E088890E94D20025
:100610009E858F858923898B62E089890E94D2001B
:100620009E858F8589278A8B62E08A890E94D20005
:10063000898980958B8B62E08B890E94D2008889A2
:1006400080958C8B62E08C890E94D2008A8980958B
:100650008D8B62E08D890E94D20062E070E081E0C3
:1006600090E00E946F049F8B8E8B62E070E081E0CF
:1006700090E00E946F04998F888F8DEB91E09F8BA3
:100680008E8B8E899F890E944A0182EC91E0998F1E
:10069000888F888D998D0E944A0186EC91E09B8F0E
:1006A0008A8F8FEC91E00E944A012A8D3B8D8E89C2
:1006B0009F89B9010E94CE058E899F890E944A01B7
:1006C0008E899F890E942305888D998D0E9423051C
:1006D0008A8D9B8D0E94230583EE91E00E944A0142
:1006E000288D398D8E899F89B9010E94D9058C8FFB
:1006F0006AE08C8D0E94D20088EF91E00E944A014E
:100700008E899F890E94E2058D8F6AE08D8D0E94FF
:10071000D20082E08E8F6AE08E8D0E94D20082E14C
:1007200092E00E944A0183E490E00E94AC056AE0F6
:100730000E94D20083E490E00E94B0056AE00E942B
:10074000D20083E490E00E94BF056AE00E94D200DC
:100750006AE083E40E94D20080E290E00E94B70544
:100760006AE00E94D20080E090E00E942E06CF93C3
:10077000DF9300D0CDB7DEB79A83898388E090E01D
:100780000F900F90DF91CF910895CF93DF93CDB766
:10079000DEB72A970FB6F894DEBF0FBECDBF9C839D
:1007A0008B837E836D8358874F833A87298762E0E6
:1007B00070E081E090E00E946F049A8389838F81CA
:1007C0009885FC018081282F30E081E090E002C014
:1007D000880F991F2A95E2F7282F89819A81FC01B9
:1007E000208389859A85FC018081882371F08D8121
:1007F0009E81FC01208189819A81FC018081282BC6
:100800008D819E81FC01208310C08D819E81FC0121
:100810008081282F89819A81FC01808180958223A3
:10082000282F8D819E81FC01208389819A810E94DD
:10083000230500002A960FB6F894DEBF0FBECDBF89
:10084000DF91CF910895CF93DF93CDB7DEB7279790
:100850000FB6F894DEBF0FBECDBF9B838A837D8326
:100860006C835F834E838E819F81FC018081282F62
:1008700030E081E090E002C0880F991F2A95E2F7EE
:1008800089838C819D81FC019081898189232796B0
:100890000FB6F894DEBF0FBECDBFDF91CF910895A4
:1008A000CF93DF9300D000D000D0CDB7DEB79A83CE
:1008B00089837C836B835E834D834D815E812B8135
:1008C0003C8189819A81B9010E94EB0526960FB679
:1008D000F894DEBF0FBECDBFDF91CF9108950F9387
:1008E0001F93CF93DF93869F8001879F100D969F64
:1008F000100D1124C8010E948B04EC01009729F00F
:10090000A80160E070E00E94C705CE01DF91CF91A1
:100910001F910F9108950F931F93CF93DF93823010
:10092000910510F482E090E0E0913602F0913702F8
:1009300020E030E0A0E0B0E0309719F14081518133
:100940000281138148175907C8F08417950769F485
:10095000109731F012960C93129713961C9327C0A0
:10096000009336021093370222C02115310519F089
:100970004217530718F49A01BD01EF01DF01F80196
:10098000DBCF21153105F9F0281B390B2430310557
:1009900080F48A819B816115710521F0FB019383AD
:1009A000828304C09093370280933602FE01329610
:1009B00044C0FE01E20FF31F81939193225031094D
:1009C000398328833AC02091340230913502232B99
:1009D00041F42091020130910301309335022093BC
:1009E000340220910001309101012115310541F4BB
:1009F0002DB73EB74091040150910501241B350BE2
:100A0000E0913402F0913502E217F307A0F42E1BB7
:100A10003F0B2817390778F0AC014E5F5F4F241762
:100A2000350748F04E0F5F1F509335024093340254
:100A30008193919302C0E0E0F0E0CF01DF91CF918C
:100A40001F910F910895CF93DF93009709F481C010
:100A5000FC01329713821282A0913602B0913702C4
:100A6000109781F420813181820F931F20913402ED
:100A7000309135022817390751F5F0933502E0938C
:100A8000340267C0ED0120E030E0CE17DF0740F40C
:100A90004A815B819E0141155105F1F0EA01F5CFD4
:100AA000D383C28340815181840F951FC817D90712
:100AB00059F488819981840F951F029691838083D0
:100AC0008A819B81938382832115310529F4F093D8
:100AD0003702E09336023DC0E901FB83EA83499186
:100AE0005991C40FD51FEC17FD0761F480819181E6
:100AF000840F951F0296E9019983888382819381EF
:100B00009B838A83E0E0F0E012968D919C9113978D
:100B1000009719F0FD01DC01F7CF8D919C911197A1
:100B20009D012E5F3F4F820F931F20913402309121
:100B300035022817390769F4309729F410923702E3
:100B40001092360202C013821282B0933502A09333
:100B50003402DF91CF91089585FD0C941B068062CD
:100B600091110C941B0681568A51D8F70895911162
:100B70000C941B06803211F08930D1F70895911141
:100B8000089581548A5108F4805E855A0895DC01E5
:100B900001C06D9341505040E0F70895FB01DC0126
:100BA0000D900020E9F7119701900D920020E1F7D8
:100BB0000895FB01DC018D91019080190110D9F39A
:100BC000990B0895FC0101900020E9F7809590951C
:100BD0008E0F9F1F08954532510520F4423010F0CA
:100BE0000C94F605FB011082CB010895BB274A3017
:100BF00031F4992322F4BDE2909581959F4F0C9496
:100C00000206BB27FB015527AA27880F991FAA1F99
:100C1000A41710F0A41B83955051B9F7A05DAA3317
:100C200008F0A95DA193009779F7B111B1931192E2
:100C3000CB010C941E06992788270895DC01FC013E
:100C4000672F71917723E1F7329704C07C916D9300
:100C500070836291AE17BF07C8F30895F894FFCF71
:100C6000000038022000000102030405060701000D
:100C70000A0D000A00496D6167696E65727920503E
:100C80004F5254593A00504F525442206265666F99
:100C900072652073657474696E67204C45442050FA
:100CA000494E353A00504F52544220616674657285
:100CB0002073657474696E67204C45442050494E1A
:100CC000353A00504F525442207475726E6564205C
:100CD000616C6C204C45447320746F204C4F573A24
:100CE00000504F52544320696E697469616C6C798D
:100CF0003A00504F525443207475726E65642061FF
:100D00006C6C204C45447320746F20484947483A26
:100D100000504F525442205042353A20004A6163FD
:100D20006B0031323500205269636861726400548F
:100D300065737420537472696E6720636F6E6361AC
:100D4000743A005465737420537472696E6720633B
:100D50006F6D706172653A004D656D2073697A65DB
:100D600020562E532E20537472696E67206C656E68
:100D70003A0043686172616368746572206F7065E0
:100D8000726174696F6E733A000001020304050614
:040D90000701000057
:00000001FF
