:100000000C9435000C945D000C945D000C945D0024
:100010000C945D000C945D000C945D000C945D00EC
:100020000C945D000C945D000C945D000C945D00DC
:100030000C945D000C945D000C945D000C945D00CC
:100040000C945D000C945D000C945D000C945D00BC
:100050000C945D000C94D1000C945D000C945D0038
:100060000C945D000C945D00EE0111241FBECFEFD7
:10007000D8E0DEBFCDBF11E0A0E0B1E0E4EAFCE0F3
:1000800002C005900D92AA30B107D9F721E0AAE08D
:10009000B1E001C01D92A231B207E1F710E0C5E363
:1000A000D0E004C02197FE010E94A203C433D1070F
:1000B000C9F70E94A4010C9450060C940000CF9341
:1000C000DF9300D0CDB7DEB79A8389838AE790E0CB
:1000D0002FE8FC01208300000F900F90DF91CF915B
:1000E0000895CF93DF9300D0CDB7DEB79A8389838D
:1000F00089E790E0FC01108288E790E0FC01108223
:100100008AE790E0FC01108200000F900F90DF91D1
:10011000CF910895CF93DF9300D000D0CDB7DEB755
:100120009A8389837C836B838CE790E02B813C816D
:10013000F90120812064FC0120838AE790E02AE70E
:1001400030E0F90120812064FC01208300000F9041
:100150000F900F900F90DF91CF910895CF93DF9381
:1001600000D000D0CDB7DEB79C838B8388E790E0CA
:10017000FC018081898389E790E0FC0180818A838A
:100180008A81882F90E0382F22278981882F90E05C
:10019000822B932B0F900F900F900F90DF91CF91A8
:1001A00008951F920F9200905F000F9211242F93D9
:1001B0003F934F935F936F937F938F939F93AF93EF
:1001C000BF93EF93FF93CF93DF93CDB7DEB76897DD
:1001D000DEBFCDBF8AE0888F80910C0190910D0128
:1001E0000E94AE009C0140E050E060E070E0CB0176
:1001F000288B398B4A8B5B8B6C8B7D8B8E8B9F8B8B
:1002000080910A0190910B01AE01485E5F4F9E0103
:10021000205F3F4FB9010E9443031F8680910C016C
:1002200090910D019E01215F3F4FB9010E948A000C
:1002300080E090E0AAEFB3E489839A83AB83BC8328
:1002400020E030E04AE755E469817A818B819C8126
:100250000E942E04DC01CB018D839E83AF83B8877F
:1002600020E030E040E85FE36D817E818F819885FA
:100270000E94A80388232CF481E090E09A87898764
:100280003EC020E03FEF4FE757E46D817E818F81D4
:1002900098850E942904181644F520E030E040E2D9
:1002A00051E469817A818B819C810E942E04DC015A
:1002B000CB01BC01CD010E94AD03DC01CB019A87CB
:1002C000898789859A85892B21F180E991E09C872E
:1002D0008B878B859C850197F1F79C878B87898518
:1002E0009A8501979A878987ECCF6D817E818F816E
:1002F00098850E94AD03DC01CB019A8789878985A7
:100300009A859E878D878D859E850197F1F79E87BB
:100310008D87000068960FB6F894DEBF0FBECDBF84
:10032000DF91CF91FF91EF91BF91AF919F918F910D
:100330007F916F915F914F913F912F910F9000921C
:100340005F000F901F901895CF93DF9300D0CDB72B
:10035000DEB780E18A8380910A0190910B019E01B2
:100360002E5F3F4FB9010E94FB01789480910C01F0
:1003700090910D010E945F00198280910C01909173
:100380000D019E012F5F3F4FB9010E948A00FFCFF0
:10039000CF93DF9300D000D0CDB7DEB79A838983A7
:1003A0007C836B8389819A81019781F48B819C8105
:1003B000019661F40E94690390930B0180930A01F6
:1003C0000E94760390930D0180930C0100000F9022
:1003D0000F900F900F90DF91CF910895CF93DF93FF
:1003E000CDB7DEB76FEF7FEF81E090E00E94C801EC
:1003F000DF91CF910895CF93DF9300D000D0CDB798
:10040000DEB79A8389837C836B8381EC90E028E15B
:10041000FC01208382EC90E02EE0FC01208384EC40
:1004200090E02B813C81F9012081222F30E0FC01FA
:100430003183208300000F900F900F900F90DF9179
:10044000CF910895CF93DF9300D0CDB7DEB79A83D5
:10045000898381EC90E0FC01108200000F900F90E6
:10046000DF91CF910895CF93DF9300D0CDB7DEB762
:100470009A83898380EC90E0FC0180818095881FBD
:100480008827881F882309F0F5CF86EC90E0FC01CF
:1004900080810F900F90DF91CF910895CF93DF93DC
:1004A00000D000D0CDB7DEB79A8389837C836B837D
:1004B00080EC90E0FC018081882F90E08072992789
:1004C00021E0892B09F020E0222309F0F1CF86EC0E
:1004D00090E02B813C81F9012081FC012083000008
:1004E0000F900F900F900F90DF91CF910895CF93C1
:1004F000DF9300D000D0CDB7DEB79A8389837C83A9
:100500006B832B813C8189819A81B9010E944E02C3
:1005100089819A8166E071E00E94960200000F9046
:100520000F900F900F90DF91CF910895CF93DF93AD
:1005300000D000D000D0CDB7DEB79C838B837E8304
:100540006D831A8219828D819E810E9407069C010B
:1005500089819A818217930790F489819A819C01FD
:100560002F5F3F4F3A8329839C018D819E81280F05
:10057000391F8B819C81B9010E944E02E4CF00009B
:1005800026960FB6F894DEBF0FBECDBFDF91CF9198
:100590000895CF93DF9300D000D0CDB7DEB79A8314
:1005A00089837C836B832B813C8189819A81B9010A
:1005B0000E94960289819A8166E071E00E9496020B
:1005C00000000F900F900F900F90DF91CF91089542
:1005D000CF93DF93CDB7DEB72A970FB6F894DEBF7F
:1005E0000FBECDBF9E838D8378876F835A874987DF
:1005F00062E070E081E090E00E94C3049C838B8302
:1006000089859A85FC018081A82FB0E0EF81F8856B
:1006100020813181428153816481758186819781F6
:100620008B819C81AD01BC01C9010E9410061A8218
:1006300019828B819C810E9407069C0189819A8185
:100640008217930790F489819A819C012F5F3F4F15
:100650003A8329839C018B819C81280F391F8D81CE
:100660009E81B9010E944E02E4CF8B819C810E9441
:10067000770500002A960FB6F894DEBF0FBECDBFF7
:10068000DF91CF910895CF93DF9300D000D000D0B9
:10069000CDB7DEB79A8389837C836B835E834D837A
:1006A0004D815E812B813C8189819A81B9010E94B3
:1006B000E80289819A8166E071E00E94960200005A
:1006C00026960FB6F894DEBF0FBECDBFDF91CF9157
:1006D0000895CF93DF93CDB7DEB762E070E081E09D
:1006E00090E00E94C304DF91CF910895CF93DF93F0
:1006F000CDB7DEB762E070E081E090E00E94C30415
:10070000DF91CF910895CF93DF9300D000D000D038
:10071000CDB7DEB79A8389837C836B835E834D83F9
:100720004D815E812B813C8189819A81B9010E9432
:10073000100626960FB6F894DEBF0FBECDBFDF9130
:10074000CF910895EE0FFF1F0590F491E02D0994CD
:100750000E94DC0308F481E008950E94080488F0F8
:100760009F5798F0B92F9927B751B0F0E1F0660F75
:10077000771F881F991F1AF0BA95C9F714C0B130B6
:1007800091F00E942204B1E008950C942204672F96
:10079000782F8827B85F39F0B93FCCF386957795E5
:1007A0006795B395D9F73EF49095809570956195CE
:1007B0007F4F8F4F9F4F0895990F0008550FAA0B39
:1007C000E0E8FEEF16161706E807F907C0F0121664
:1007D0001306E407F50798F0621B730B840B950B67
:1007E00039F40A2661F0232B242B252B21F40895BC
:1007F0000A2609F4A140A6958FEF811D811D089559
:1008000057FD9058440F551F59F05F3F71F04795C1
:10081000880F97FB991F61F09F3F79F087950895A6
:10082000121613061406551FF2CF4695F1DF08C0C5
:10083000161617061806991FF1CF869571056105E2
:1008400008940895E894BB2766277727CB0197F98A
:1008500008950E94DC0308F48FEF08950E9441047C
:100860000C94B2040E94A40438F00E94AB0420F05F
:10087000952311F00C949B040C94A10411240C9466
:1008800023040E94000470F3959FC1F3950F50E07C
:10089000551F629FF001729FBB27F00DB11D639F32
:1008A000AA27F00DB11DAA1F649F6627B00DA11DD8
:1008B000661F829F2227B00DA11D621F739FB00D7E
:1008C000A11D621F839FA00D611D221F749F3327EE
:1008D000A00D611D231F849F600D211D822F762F87
:1008E0006A2F11249F5750409AF0F1F088234AF064
:1008F000EE0FFF1FBB1F661F771F881F91505040D0
:10090000A9F79E3F510580F00C949B040C9423049E
:100910005F3FE4F3983ED4F3869577956795B79556
:10092000F795E7959F5FC1F7FE2B880F911D969570
:10093000879597F9089597F99F6780E870E060E0E0
:1009400008959FEF80EC089500240A941616170668
:1009500018060906089500240A94121613061406B0
:1009600005060895092E0394000C11F4882352F013
:10097000BB0F40F4BF2B11F460FF04C06F5F7F4FCB
:100980008F4F9F4F08950F931F93CF93DF93869FB1
:100990008001879F100D969F100D1124C8010E94A1
:1009A000DF04EC01009729F0A80160E070E00E94EC
:1009B0000006CE01DF91CF911F910F9108950F9303
:1009C0001F93CF93DF938230910510F482E090E083
:1009D000E0911001F091110120E030E0A0E0B0E0E2
:1009E000309719F1408151810281138148175907CD
:1009F000C8F08417950769F4109731F012960C939C
:100A0000129713961C9327C00093100110931101A5
:100A100022C02115310519F04217530718F49A0125
:100A2000BD01EF01DF01F801DBCF21153105F9F040
:100A3000281B390B2430310580F48A819B81611594
:100A4000710521F0FB019383828304C0909311010F
:100A500080931001FE01329644C0FE01E20FF31FA5
:100A60008193919322503109398328833AC0209190
:100A70000E0130910F01232B41F42091020130919E
:100A8000030130930F0120930E012091000130915A
:100A900001012115310541F42DB73EB74091040104
:100AA00050910501241B350BE0910E01F0910F01CF
:100AB000E217F307A0F42E1B3F0B2817390778F035
:100AC000AC014E5F5F4F2417350748F04E0F5F1F94
:100AD00050930F0140930E018193919302C0E0E087
:100AE000F0E0CF01DF91CF911F910F910895CF9347
:100AF000DF93009709F481C0FC01329713821282C0
:100B0000A0911001B0911101109781F420813181E1
:100B1000820F931F20910E0130910F012817390782
:100B200051F5F0930F01E0930E0167C0ED0120E055
:100B300030E0CE17DF0740F44A815B819E0141150A
:100B40005105F1F0EA01F5CFD383C2834081518191
:100B5000840F951FC817D90759F488819981840F8C
:100B6000951F0296918380838A819B8193838283E0
:100B70002115310529F4F0931101E09310013DC0D6
:100B8000E901FB83EA8349915991C40FD51FEC1702
:100B9000FD0761F480819181840F951F0296E90120
:100BA00099838883828193819B838A83E0E0F0E04C
:100BB00012968D919C911397009719F0FD01DC011D
:100BC000F7CF8D919C9111979D012E5F3F4F820F22
:100BD000931F20910E0130910F012817390769F4F6
:100BE000309729F4109211011092100102C0138263
:100BF0001282B0930F01A0930E01DF91CF9108955F
:100C0000DC0101C06D9341505040E0F70895FC01B4
:100C100001900020E9F7809590958E0F9F1F089511
:100C20004532510520F4423010F00C941B06FB01B4
:100C30001082CB010895BB274A3031F4992322F466
:100C4000BDE2909581959F4F0C942706BB27FB0131
:100C50005527AA27880F991FAA1FA41710F0A41BB5
:100C600083955051B9F7A05DAA3308F0A95DA1930F
:100C7000009779F7B111B1931192CB010C94400612
:100C8000DC01FC01672F71917723E1F7329704C0F3
:100C90007C916D9370836291AE17BF07C8F308957E
:040CA000F894FFCFF6
:0A0CA4000000120120000A0D0000FC
:00000001FF
