:100000000C9434000C9446000C9446000C9446006A
:100010000C9446000C9446000C9446000C94460048
:100020000C9446000C9446000C9446000C94460038
:100030000C9446000C9446000C9446000C94460028
:100040000C9446000C9446000C9446000C94460018
:100050000C9446000C9446000C9446000C94460008
:100060000C9446000C94460011241FBECFEFD8E03C
:10007000DEBFCDBF21E0A0E0B1E001C01D92A13004
:10008000B207E1F70E94C7000C94F3020C94000041
:10009000CF93DF9300D0CDB7DEB79A838983898170
:1000A0009A81FC01108200000F900F90DF91CF9198
:1000B0000895CF93DF9300D000D0CDB7DEB79A83F9
:1000C00089837C836B8389819A81FC018081282FBD
:1000D0008B819C81FC01808180958223282F8981DE
:1000E0009A81FC01208300000F900F900F900F90D9
:1000F000DF91CF910895CF93DF9300D000D0CDB79B
:10010000DEB79A8389837C836B8389819A81FC0122
:1001100020818B819C81FC018081282B89819A819F
:10012000FC01208300000F900F900F900F90DF9143
:10013000CF910895CF93DF9300D000D01F92CDB719
:10014000DEB79A8389836B835D834C838C819D8129
:10015000FC0180819181892B49F49E012D5F3F4FE5
:1001600089819A81B9010E94590008C09E012D5FC2
:100170003F4F89819A81B9010E947B0000000F9056
:100180000F900F900F900F90DF91CF910895CF9324
:10019000DF93CDB7DEB76D970FB6F894DEBF0FBE15
:1001A000CDBF82E08D8FCE014D96BC0185E290E0FF
:1001B0000E94590085E290E020E2FC01208380E06B
:1001C00090E0AAE7B4E489839A83AB83BC8320E000
:1001D00030E04AE753E469817A818B819C810E94F7
:1001E0005E02DC01CB018B8B9C8BAD8BBE8B20E048
:1001F00030E040E85FE36B897C898D899E890E94AD
:10020000D80188232CF481E090E0988F8F8B3EC03A
:1002100020E03FEF4FE757E46B897C898D899E8909
:100220000E945902181644F520E030E040E251E403
:1002300069817A818B819C810E945E02DC01CB0105
:10024000BC01CD010E94DD01DC01CB01988F8F8BB9
:100250008F89988D892B21F189E190E09A8F898F80
:10026000898D9A8D0197F1F79A8F898F8F89988D53
:100270000197988F8F8BECCF6B897C898D899E89B4
:100280000E94DD01DC01CB01988F8F8B8F89988DC7
:100290009C8F8B8F8B8D9C8D0197F1F79C8F8B8F13
:1002A00085E290E0FC0180818560882F90E0AC01C0
:1002B0004095509585E290E025E230E0F9012081FB
:1002C000322F242F2323FC01208380E090E0AAE733
:1002D000B4E48D839E83AF83B88720E030E04AE7A3
:1002E00053E46D817E818F8198850E945E02DC01DE
:1002F000CB0189879A87AB87BC8720E030E040E854
:100300005FE369857A858B859C850E94D801882367
:100310002CF481E090E09E878D873FC020E03FEF86
:100320004FE757E469857A858B859C850E94590241
:1003300018164CF520E030E040E251E46D817E81FA
:100340008F8198850E945E02DC01CB01BC01CD014A
:100350000E94DD01DC01CB019E878D878D859E8506
:10036000892B09F427CF89E190E0988B8F878F85BF
:1003700098890197F1F7988B8F878D859E850197D6
:100380009E878D87EBCF69857A858B859C850E94BA
:10039000DD01DC01CB019E878D878D859E859A8B43
:1003A000898B89899A890197F1F79A8B898B02CF7A
:1003B0000E940C0208F481E008950E94380288F03F
:1003C0009F5798F0B92F9927B751B0F0E1F0660F19
:1003D000771F881F991F1AF0BA95C9F714C0B1305A
:1003E00091F00E945202B1E008950C945202672FDE
:1003F000782F8827B85F39F0B93FCCF38695779589
:100400006795B395D9F73EF4909580957095619571
:100410007F4F8F4F9F4F0895990F0008550FAA0BDC
:10042000E0E8FEEF16161706E807F907C0F0121607
:100430001306E407F50798F0621B730B840B950B0A
:1004400039F40A2661F0232B242B252B21F408955F
:100450000A2609F4A140A6958FEF811D811D0895FC
:1004600057FD9058440F551F59F05F3F71F0479565
:10047000880F97FB991F61F09F3F79F0879508954A
:10048000121613061406551FF2CF4695F1DF08C069
:10049000161617061806991FF1CF86957105610586
:1004A00008940895E894BB2766277727CB0197F92E
:1004B00008950E940C0208F48FEF08950E947102C3
:1004C0000C94E2020E94D40238F00E94DB0220F079
:1004D000952311F00C94CB020C94D10211240C94AE
:1004E00053020E94300270F3959FC1F3950F50E0C4
:1004F000551F629FF001729FBB27F00DB11D639FD6
:10050000AA27F00DB11DAA1F649F6627B00DA11D7B
:10051000661F829F2227B00DA11D621F739FB00D21
:10052000A11D621F839FA00D611D221F749F332791
:10053000A00D611D231F849F600D211D822F762F2A
:100540006A2F11249F5750409AF0F1F088234AF007
:10055000EE0FFF1FBB1F661F771F881F9150504073
:10056000A9F79E3F510580F00C94CB020C945302E6
:100570005F3FE4F3983ED4F3869577956795B795FA
:10058000F795E7959F5FC1F7FE2B880F911D969514
:10059000879597F9089597F99F6780E870E060E084
:1005A00008959FEF80EC089500240A94161617060C
:1005B00018060906089500240A9412161306140654
:1005C00005060895092E0394000C11F4882352F0B7
:1005D000BB0F40F4BF2B11F460FF04C06F5F7F4F6F
:0A05E0008F4F9F4F0895F894FFCF4E
:00000001FF
