:100000000C9434000C9451000C9451000C94510049
:100010000C9451000C9451000C9451000C9451001C
:100020000C9451000C9451000C9451000C9451000C
:100030000C9451000C9451000C9451000C945100FC
:100040000C9451000C9451000C94C5000C94510078
:100050000C9407010C9451000C9451000C94510025
:100060000C9451000C94510011241FBECFEFD8E026
:10007000DEBFCDBF11E0A0E0B1E0E8E7F2E002C0F2
:1000800005900D92A635B107D9F721E0A6E5B1E0BC
:1000900001C01D92AB36B207E1F70E9433010C9408
:1000A0003A010C94000062E071E086E591E00C9466
:1000B0007200089565E171E086E591E00C947200AC
:1000C000CF93DF931F92CDB7DEB76983BE016F5F19
:1000D0007F4F86E591E00E94B7000F90DF91CF91AE
:1000E0000895089589E591E00E94900063E571E02C
:1000F00089E591E00E949000089588E18093C10015
:100100008EE08093C2007093C5006093C4008CE5BC
:1001100091E00E9459008CE591E00E94ED00089565
:10012000EF92FF920F931F93CF93DF938B01D0E059
:10013000C0E07B0181E0E81AF108F801019000209D
:10014000E9F73197E01BF10BCE17DF0748F4219652
:10015000B7016C0F7D1F8FE591E00E94B700EDCFD6
:10016000DF91CF911F910F91FF90EF900895E0ECF8
:10017000F0E0808185FFFDCFFB0180818093C60088
:1001800082E691E00E94FA0008951F920F920FB646
:100190000F9211242F933F934F935F936F937F930D
:1001A0008F939F93AF93BF93EF93FF936091C6009C
:1001B00085E691E00E946000FF91EF91BF91AF91C1
:1001C0009F918F917F916F915F914F913F912F916F
:1001D0000F900FBE0F901F901895E1ECF0E080811A
:1001E0008068808378940895E1ECF0E080818F77D7
:1001F00080830895E1ECF0E08081806480837894CE
:100200000895E1ECF0E080818F7B808308951F9258
:100210000F920FB60F9211242F933F934F935F933A
:100220006F937F938F939F93AF93BF93EF93FF93BE
:100230006091C60088E691E00E94710088E691E036
:100240000E940101FF91EF91BF91AF919F918F911A
:100250007F916F915F914F913F912F910F900FBEC2
:100260000F901F90189560E170E086E591E00E9484
:080270007D00FFCFF894FFCFE1
:10027800280144617461205472616E736D697474ED
:10028800656420210050726F746F636F6C20537423
:100298006F7070656420210044617461205472613C
:1002A8006E736D697373696F6E20636F6D706C65C3
:1002B800746564207375636365737366756C6C79B4
:0602C8002021000A0D00D8
:00000001FF
