:100000000C9434000C9451000C9451000C94510049
:100010000C9451000C9451000C9451000C9451001C
:100020000C9451000C9451000C9451000C9451000C
:100030000C9451000C9451000C9451000C945100FC
:100040000C9451000C9451000C9428010C94510014
:100050000C946A010C9451000C9451000C945100C2
:100060000C9451000C94510011241FBECFEFD8E026
:10007000DEBFCDBF11E0A0E0B1E0EEE4F6E002C0EB
:1000800005900D92AC37B107D9F721E0ACE7B1E0AC
:1000900001C01D92AE39B207E1F70E9496010C949F
:1000A00025030C94000068E071E08CE791E00C946B
:1000B00085006BE171E08CE791E00C9485006BE3C7
:1000C00071E08CE791E00C948500EF920F931F9301
:1000D00080E1E82E062F10E020E030E040E050E024
:1000E00060E070E08CE791E00E9490008CE791E086
:1000F0001F910F91EF900C94B400609100017091EA
:1001000001018CE791E00C9485008FE791E00E945B
:10011000F30069E771E08FE791E00E94F300089532
:10012000EF920F931F9382E891E00E94BB0069E772
:1001300071E082E891E00E94F3001F910F91EF902F
:10014000089588E18093C1008EE08093C20070938F
:10015000C5006093C40085E891E00E94590085E8DD
:1001600091E00E945001089588E891E00E945F00AC
:100170001092C1000895CF92DF92EF920F931F93D8
:10018000CF93DF9362E070E081E090E00E949D01F8
:100190006C014E2D50E0BC01802F912F0E94E50292
:1001A000D0E0C0E0860101501109F6010190002065
:1001B000E9F73197EC19FD09CE17DF0748F42196CE
:1001C000B8016C0F7D1F8BE891E00E941A01EDCF02
:1001D000C6010E945502DF91CF911F910F91EF90C0
:1001E000DF90CF900895EF92FF920F931F93CF93DC
:1001F000DF938B01D0E0C0E07B0181E0E81AF108D9
:10020000F80101900020E9F73197E01BF10BCE17C0
:10021000DF0748F42196B7016C0F7D1F8EE891E04F
:100220000E941A01EDCFDF91CF911F910F91FF90A6
:10023000EF900895E0ECF0E0808185FFFDCFFB01B9
:1002400080818093C60081E991E00E945D0108955C
:100250001F920F920FB60F9211242F933F934F933B
:100260005F936F937F938F939F93AF93BF93EF931E
:10027000FF936091C60084E991E00E946500FF91C0
:10028000EF91BF91AF919F918F917F916F915F910E
:100290004F913F912F910F900FBE0F901F90189587
:1002A000E1ECF0E080818068808378940895E1EC4F
:1002B000F0E080818F7780830895E1ECF0E0808129
:1002C0008064808378940895E1ECF0E080818F7BF6
:1002D000808308951F920F920FB60F9211242F93CF
:1002E0003F934F935F936F937F938F939F93AF93BE
:1002F000BF93EF93FF936091C60087E991E00E945E
:100300007D0087E991E00E946401FF91EF91BF9128
:10031000AF919F918F917F916F915F914F913F919D
:100320002F910F900FBE0F901F90189560E170E015
:100330008CE791E00E94A100FFCF0F931F93CF9312
:10034000DF93869F8001879F100D969F100D1124CB
:10035000C8010E94B901EC01009729F0A80170E0E2
:1003600060E00E94DE02CE01DF91CF911F910F91DC
:1003700008950F931F93CF93DF938230910510F46C
:1003800082E090E0E0919C01F0919D0130E020E05E
:10039000B0E0A0E0309799F42115310509F44AC086
:1003A000281B390B24303105D8F58A819B816115D2
:1003B000710589F1FB0193838283FE0111C04081A5
:1003C00051810281138148175907E0F048175907F6
:1003D00099F4109761F012960C93129713961C9350
:1003E0003296CF01DF91CF911F910F910895009325
:1003F0009C0110939D01F4CF2115310551F0421756
:10040000530738F0A901DB019A01BD01DF01F801B2
:10041000C1CFEF01F9CF90939D0180939C01CDCF87
:10042000FE01E20FF31F819391932250310939832A
:100430002883D7CF20919A0130919B01232B41F43F
:10044000209104013091050130939B0120939A0182
:1004500020910201309103012115310541F42DB79E
:100460003EB74091060150910701241B350BE091E6
:100470009A01F0919B01E217F307A0F42E1B3F0BAA
:100480002817390778F0AC014E5F5F4F2417350706
:1004900048F04E0F5F1F50939B0140939A01819348
:1004A00091939FCFF0E0E0E09CCFCF93DF93009754
:1004B000E9F0FC01329713821282A0919C01B09165
:1004C0009D01ED0130E020E01097A1F42081318101
:1004D000820F931F20919A0130919B0128173907B1
:1004E00009F061C0F0939B01E0939A01DF91CF91F5
:1004F0000895EA01CE17DF07E8F54A815B819E0186
:1005000041155105B1F7E901FB83EA8349915991FE
:10051000C40FD51FEC17FD0761F48081918102960D
:10052000840F951FE90199838883828193819B833E
:100530008A83F0E0E0E012968D919C9113970097EA
:10054000B9F52D913C911197CD010296820F931F21
:1005500020919A0130919B012817390739F630977D
:1005600051F510929D0110929C01B0939B01A093B4
:100570009A01BCCFD383C28340815181840F951FE0
:10058000C817D90761F44E5F5F4F88819981480F82
:10059000591F518340838A819B81938382832115D4
:1005A000310509F0B0CFF0939D01E0939C019ECFFF
:1005B000FD01DC01C0CF13821282D7CFDC0101C064
:1005C0006D9341505040E0F708954532510520F4B5
:1005D000423010F00C94F002FB011082CB01089520
:1005E000BB274A3031F4992322F4BDE290958195DE
:1005F0009F4F0C94FC02BB27FB015527AA27880FAD
:10060000991FAA1FA41710F0A41B83955051B9F786
:10061000A05DAA3308F0A95DA193009779F7B11105
:10062000B1931192CB010C941503DC01FC01672FEF
:1006300071917723E1F7329704C07C916D937083B9
:0E0640006291AE17BF07C8F30895F894FFCF7C
:10064E004E0100009E0120004461746120547261CD
:10065E006E736D697474656420210050726F746FCF
:10066E00636F6C2053746172746564205375636399
:10067E0065737366756C6C7920210050726F746FA0
:10068E00636F6C2053746F70706564202100446139
:10069E007461205472616E736D697373696F6E202D
:1006AE00636F6D706C6574656420737563636573D9
:0C06BE007366756C6C792021000A0D0039
:00000001FF
