:100000000C9434000C9451000C9451000C94510049
:100010000C9451000C9451000C9451000C9451001C
:100020000C9451000C9451000C9451000C9451000C
:100030000C9451000C9451000C9451000C945100FC
:100040000C9451000C9453000C9452010C94B50183
:100050000C9451000C9451000C9451000C945100DC
:100060000C9451000C94510011241FBECFEFD8E026
:10007000DEBFCDBF11E0A0E0B1E0E8EAFBE002C0E6
:1000800005900D92A632B107D9F721E0A6E2B1E0C2
:1000900001C01D92A933B207E1F70E9453030C94EB
:1000A000D2050C9400001F920F920FB60F921124EC
:1000B0000F900FBE0F901F901895CF92DF92EF9286
:1000C000FF92CF93DF93EB012881398120313105F5
:1000D00009F473C08CB590E08F7E2817390709F4B6
:1000E00070C01CBCFA01C080D180E280F38020E0A7
:1000F00030E040E05FE3C701B6010E942504882399
:1001000009F454C020E030E040E85EE3C701B601E6
:100110000E942504882391F120E030E040E85DE36F
:10012000C701B6010E942504882309F454C020E0C9
:1001300030E040E05DE3C701B6010E94250488235A
:1001400009F441C020E030E040E85CE3C701B601BB
:100150000E942504882309F446C020E030E040E0F6
:100160005CE3C701B6010E94250481110DC08CB566
:1001700083608CBD8DB58E7F8DBD06C08CB58C7FA8
:100180008CBD8DB58E7F8DBD8CB54CB590E0837FD9
:10019000846428813981822B932B842B8CBDDF9141
:1001A000CF91FF90EF90DF90CF9008958CB58C7F2A
:1001B0008CBD8DB581608DBDE7CF84B18C6284B973
:1001C00090CF2C9A8ECF8CB58C7F82608CBD8DB5F4
:1001D00081608DBDD9CF8CB58C7F81608CBD8DB594
:1001E0008E7F8DBDD1CF8CB583608CBD8DB5816088
:1001F0008DBDCACFEF92FF920F931F93CF93DF93E2
:10020000FB0180819181892B91F089017B01C0E004
:10021000D0E02D982D9A0115110511F0F8010995DE
:100220002196F70180819181C817D90790F3DF915A
:10023000CF911F910F91FF90EF900895FB01608186
:1002400081E090E09C01DA010C9002C0220F331F84
:100250000A94E2F7262B208320810C9002C0880F9D
:10026000991F0A94E2F780958223808308958CB5C4
:1002700080688CBD789408958CB58F778CBD089577
:100280008CB58F7B8CBD0895FB0180818EBD0DB434
:1002900007FEFDCF0895E4E6F0E080818B7F808348
:1002A000089508951F920F920FB60F9211240F9385
:1002B0001F932F933F934F935F936F937F938F93EE
:1002C0009F93AF93BF93EF93FF93CF93DF931F92CF
:1002D000CDB7DEB7E0913301F0913401309739F1B9
:1002E000A081B1810D911C91CF012091C00027FF09
:1002F000FCCF2091C6002983BE016F5F7F4FF801BC
:1003000009950F90DF91CF91FF91EF91BF91AF9140
:100310009F918F917F916F915F914F913F912F911D
:100320001F910F910F900FBE0F901F90189562E0D4
:1003300070E081E090E00E944E049093340180933D
:100340003301DC01ED91FC9100811181009769F688
:1003500062E070E081E090E00E944E0490933401EE
:100360008093330180E090E0C0CF1F920F920FB6D0
:100370000F9211242F933F934F935F936F937F932B
:100380008F939F93AF93BF93EF93FF93E0913301CC
:10039000F0913401309769F10280F381E02D808182
:1003A0008093C6008091330190913401892BB1F084
:1003B0008091C1008F7D8093C100FF91EF91BF912B
:1003C000AF919F918F917F916F915F914F913F91ED
:1003D0002F910F900FBE0F901F90189562E070E064
:1003E00081E090E00E944E049093340180933301A9
:1003F000DFCF62E070E081E090E00E944E04FC01FB
:100400009093340180933301C7CF1F920F920FB6A0
:100410000F9211242F933F934F935F936F937F938A
:100420008F939F93AF93BF93EF93FF93CF93DF93FC
:100430001F92CDB7DEB780913301909134010097C0
:10044000B9F1DC01ED91FC910280F381E02D209166
:10045000C6002983BE016F5F7F4F099580913301EC
:1004600090913401892BC9F08091C1008F7B8093DA
:10047000C1000F90DF91CF91FF91EF91BF91AF91AC
:100480009F918F917F916F915F914F913F912F91AC
:100490000F900FBE0F901F90189562E070E081E002
:1004A00090E00E944E049093340180933301DCCF9E
:1004B00062E070E081E090E00E944E04909334018D
:1004C00080933301BECFE1ECF0E088E180838EE0E1
:1004D0008093C200DB018C918093C400808180688E
:1004E000808378940895E1ECF0E0808180628083DD
:1004F00078940895E1ECF0E08081806880837894BE
:100500000895E1ECF0E080818F7780830895E1EC3D
:10051000F0E080818064808378940895E1ECF0E0DD
:1005200080818F7B80830895E1ECF0E080818F7D76
:10053000808308951092C1000895DC011296ED9118
:10054000FC911397DB018C918083E1ECF0E08081DA
:100550008062808378948081806480837894089519
:100560008091C00087FFFCCF8091C60008958091E4
:10057000C00085FFFCCFFB0180818093C600809185
:10058000C10080648093C10078940895CF93DF9375
:10059000DB01EB0120E030E0FD0101900020E9F7F4
:1005A0003197EA1BFB0B2E173F0780F42F5F3F4F5D
:1005B0008091C00085FFFCCF89918093C600809117
:1005C000C10080648093C1007894E6CFDF91CF9121
:1005D00008959C019091C00095FFFCCFFB018081A4
:1005E0008093C6009091C10090649093C10078946C
:1005F00063E271E0C9010C94C602CF93DF93EC0172
:100600000E94C60263E271E0CE01DF91CF910C94AB
:10061000C602EF92FF920F931F93CF93DF938B014C
:100620007A0162E070E081E090E00E944E04EC010B
:10063000F701408150E0BC01F801808191810E9466
:100640009205DE0120E030E0FE0101900020E9F794
:100650003197EC1BFD0B2E173F0780F42F5F3F4FA8
:100660008091C00085FFFCCF8D918093C600809162
:10067000C10080648093C1007894E6CFCE01DF9101
:10068000CF911F910F91FF90EF900C940205CF93A3
:10069000DF93EC010E94090363E271E0CE01DF9178
:1006A000CF910C94C602CF93DF93CDB7DEB72997D5
:1006B0000FB6F894DEBF0FBECDBF80E18983809175
:1006C000310190913201009751F462E070E081E0D5
:1006D00090E00E944E049093320180933101BE015C
:1006E0006F5F7F4F0E94630262E3E62E61E0F62EA9
:1006F00000E311E07AE0D72E809131019091320130
:10070000009709F48AC06BE071E00E94FD0284B199
:100710008C6284B98CB580658CBD8CB5877F8CBDAF
:100720008CB58B7F8CBD2A9887E02D9A8150E9F794
:100730002D9A25B18091300190E0880F991F880F84
:10074000991F880F991F30E082239323892B09F486
:100750006FC02B9AE0E3F1E0DF0105C02B9A81E046
:10076000A433B807A9F02D9A25B18D9190E0880F98
:10077000991F880F991F880F991F30E082239323B8
:10078000892B61F72B98EBCF2B9AEE16FF0699F089
:100790002D9A25B1819190E0880F991F880F991F9C
:1007A000880F991F30E082239323892B69F72B98B8
:1007B000EE16FF0669F786E2A82E81E0B82EF50155
:1007C0002D9A85B18295817081930E171F07C1F70D
:1007D000D986F50181915F0189831A821B821C826F
:1007E0001D821E821F8218868091310190913201F4
:1007F000009701F1AE01475F5F4FBE016F5F7F4F12
:100800000E9447030A151B0519F72A9A80913101A6
:1008100090913201009709F076CF62E070E081E0BC
:1008200090E00E944E0490933201809331016BCF8F
:100830002B9890CF62E070E081E090E00E944E043F
:100840009093320180933101D5CF0E942A0408F49D
:1008500081E00895990F0008550FAA0BE0E8FEEF1C
:1008600016161706E807F907C0F012161306E40774
:10087000F50798F0621B730B840B950B39F40A266D
:1008800061F0232B242B252B21F408950A2609F44B
:10089000A140A6958FEF811D811D08950F931F9391
:1008A000CF93DF93869F8001879F100D969F100D39
:1008B0001124C8010E946A04EC01009729F0A801E4
:1008C00060E070E00E948B05CE01DF91CF911F9117
:1008D0000F9108950F931F93CF93DF93823091056B
:1008E00010F482E090E0E0913701F091380120E0CF
:1008F00030E0A0E0B0E0309719F1408151810281F1
:10090000138148175907C8F08417950769F41097A1
:1009100031F012960C93129713961C9327C00093F4
:1009200037011093380122C02115310519F0421703
:10093000530718F49A01BD01EF01DF01F801DBCF85
:1009400021153105F9F0281B390B2430310580F4CD
:100950008A819B816115710521F0FB01938382835C
:1009600004C09093380180933701FE01329644C051
:10097000FE01E20FF31F81939193225031093983D5
:1009800028833AC02091350130913601232B41F460
:1009900020910701309108013093360120933501F1
:1009A00020910501309106012115310541F42DB743
:1009B0003EB74091090150910A01241B350BE0918B
:1009C0003501F0913601E217F307A0F42E1B3F0B1F
:1009D0002817390778F0AC014E5F5F4F24173507B1
:1009E00048F04E0F5F1F50933601409335018193BD
:1009F000919302C0E0E0F0E0CF01DF91CF911F9131
:100A00000F910895CF93DF93009709F481C0FC0103
:100A1000329713821282A0913701B091380110975A
:100A200081F420813181820F931F20913501309113
:100A300036012817390751F5F0933601E093350157
:100A400067C0ED0120E030E0CE17DF0740F44A81B7
:100A50005B819E0141155105F1F0EA01F5CFD38389
:100A6000C28340815181840F951FC817D90759F45B
:100A700088819981840F951F0296918380838A8152
:100A80009B81938382832115310529F4F0933801EA
:100A9000E09337013DC0E901FB83EA834991599115
:100AA000C40FD51FEC17FD0761F480819181840F7D
:100AB000951F0296E90199838883828193819B83A4
:100AC0008A83E0E0F0E012968D919C911397009755
:100AD00019F0FD01DC01F7CF8D919C9111979D01DB
:100AE0002E5F3F4F820F931F2091350130913601C9
:100AF0002817390769F4309729F4109238011092B9
:100B0000370102C013821282B0933601A0933501DF
:100B1000DF91CF910895DC0101C06D9341505040A9
:100B2000E0F708954532510520F4423010F00C945E
:100B30009D05FB011082CB010895BB274A3031F49B
:100B4000992322F4BDE2909581959F4F0C94A905BD
:100B5000BB27FB015527AA27880F991FAA1FA41797
:100B600010F0A41B83955051B9F7A05DAA3308F08B
:100B7000A95DA193009779F7B111B1931192CB01BF
:100B80000C94C205DC01FC01672F71917723E1F71A
:100B9000329704C07C916D9370836291AE17BF074A
:080BA000C8F30895F894FFCF9B
:100BA8000100000001000039012000436F6D6D75E0
:100BB8006E69636174696F6E207374617274732EE9
:060BC8002E2E000A0D00B4
:00000001FF
