:100000000C9434000C947A030C9456030C94320331
:100010000C940E030C94D9020C9451000C945100D2
:100020000C9451000C9451000C9451000C9451000C
:100030000C9451000C9451000C9451000C945100FC
:100040000C9451000C9451000C9453000C94AC008F
:100050000C94FC000C9451000C9451000C94510031
:100060000C9451000C94510011241FBECFEFD8E026
:10007000DEBFCDBF11E0A0E0B1E0E0E4FCE002C0F3
:1000800005900D92AE33B107D9F721E0AEE3B1E0B0
:1000900001C01D92AA34B207E1F70E9442040C94F9
:1000A0001E060C9400001F920F920FB60F9211249F
:1000B0002F933F934F935F936F937F938F939F9370
:1000C000AF93BF93EF93FF93CF93DF931F92CDB77F
:1000D000DEB720913E0130913F012115310581F1BC
:1000E0009091C00097FFFCCF8091C60089832115B5
:1000F0003105D1F0BE016F5F7F4FC9010E9404043A
:100100000F90DF91CF91FF91EF91BF91AF919F91B0
:100110008F917F916F915F914F913F912F910F90B0
:100120000FBE0F901F90189562E070E081E090E0A4
:100130000E949A049C0190933F0180933E01DACF84
:1001400062E070E081E090E00E949A049C0190934C
:100150003F0180933E01C4CF1F920F920FB60F92C2
:1001600011242F933F934F935F936F937F938F93BC
:100170009F93AF93BF93EF93FF93E0913E01F09174
:100180003F01309769F10190F081E02D80818093EB
:10019000C60080913E0190913F01892BB1F0809182
:1001A000C1008F7D8093C100FF91EF91BF91AF910E
:1001B0009F918F917F916F915F914F913F912F917F
:1001C0000F900FBE0F901F90189562E070E081E0D5
:1001D00090E00E949A0490933F0180933E01DFCF0C
:1001E00062E070E081E090E00E949A04FC0190934C
:1001F0003F0180933E01C7CF1F920F920FB60F921F
:1002000011242F933F934F935F936F937F938F931B
:100210009F93AF93BF93EF93FF93CF93DF931F927F
:10022000CDB7DEB78091C600898380913E01909161
:100230003F01009779F1BE016F5F7F4F0E94050477
:1002400080913E0190913F01892BC9F08091C100BE
:100250008F7B8093C1000F90DF91CF91FF91EF9141
:10026000BF91AF919F918F917F916F915F914F91CE
:100270003F912F910F900FBE0F901F90189562E045
:1002800070E081E090E00E949A0490933F01809397
:100290003E01DCCF62E070E081E090E00E949A04D1
:1002A00090933F0180933E01C6CFE1ECF0E088E1FE
:1002B00080838EE08093C200DB018C9190E090936C
:1002C000C5008093C40080818068808378940895FD
:1002D000E1ECF0E080818062808378940895E1EC25
:1002E000F0E080818068808378940895E1ECF0E00C
:1002F00080818F7780830895E1ECF0E080818064D5
:10030000808378940895E1ECF0E080818F7B808396
:100310000895E1ECF0E080818F7D80830895109254
:10032000C1000895DC01ED91FC91DB018C9180838B
:10033000E1ECF0E080818062808378948081806449
:100340008083789408958091C00087FFFCCF8091CE
:10035000C60008958091C00085FFFCCFFB0180811D
:100360008093C6008091C10080648093C10078941E
:1003700008958091C00085FFFCCFFB0180818093B0
:10038000C6008091C10080648093C1007894809100
:10039000C00085FFFCCF8AE08093C6008091C10039
:1003A00080648093C10078948091C00085FFFCCF69
:1003B0008DE08093C6008091C10080648093C1006D
:1003C00078940895CF93DF93DB01EB0120E030E0D8
:1003D000FD0101900020E9F73197EA1BFB0B2E1776
:1003E0003F0780F42F5F3F4F8091C00085FFFCCF17
:1003F00089918093C6008091C10080648093C10080
:100400007894E6CFDF91CF910895CF93DF93DB010E
:10041000EB0120E030E0FD0101900020E9F7319789
:10042000EA1BFB0B2E173F0780F42F5F3F4F809195
:10043000C00085FFFCCF89918093C6008091C100E8
:1004400080648093C1007894E6CF8091C00085FFDE
:10045000FCCF8AE08093C6008091C10080648093C5
:10046000C10078948091C00085FFFCCF8DE080931F
:10047000C6008091C10080648093C1007894DF91B0
:10048000CF910895EF92FF920F931F93CF93DF9335
:100490008B017A0162E070E081E090E00E949A04B2
:1004A000EC01F701408150E0BC01F80180819181AD
:1004B0000E94DE05DE0120E030E0FE010190002018
:1004C000E9F73197EC1BFD0B2E173F0780F42F5FE8
:1004D0003F4F8091C00085FFFCCF8D918093C60077
:1004E0008091C10080648093C1007894E6CFCE01F2
:1004F000DF91CF911F910F91FF90EF900C944E05DB
:10050000EF92FF920F931F93CF93DF938B017A01AA
:1005100062E070E081E090E00E949A04EC01F70153
:10052000408150E0BC01F801808191810E94DE058C
:10053000DE0120E030E0FE0101900020E9F7319774
:10054000EC1BFD0B2E173F0780F42F5F3F4F809170
:10055000C00085FFFCCF8D918093C6008091C100C3
:1005600080648093C1007894E6CFCE010E944E054E
:100570008091C00085FFFCCF8AE08093C600809107
:10058000C10080648093C10078948091C00085FF91
:10059000FCCF8DE08093C6008091C1008064809381
:1005A000C1007894DF91CF911F910F91FF90EF9050
:1005B00008951F920F920FB60F9211242F933F931D
:1005C0004F935F936F937F938F939F93AF93BF935B
:1005D000EF93FF938091400190914101009799F032
:1005E0000E940604FF91EF91BF91AF919F918F916F
:1005F0007F916F915F914F913F912F910F900FBE1F
:100600000F901F90189562E070E081E090E00E94EA
:100610009A049093410180934001E2CF1F920F9280
:100620000FB60F9211242F933F934F935F936F93C5
:100630007F938F939F93AF93BF93EF93FF930E940A
:10064000D902FF91EF91BF91AF919F918F917F91CF
:100650006F915F914F913F912F910F900FBE0F902F
:100660001F9018951F920F920FB60F9211242F937F
:100670003F934F935F936F937F938F939F93AF932A
:10068000BF93EF93FF930E94D902FF91EF91BF9127
:10069000AF919F918F917F916F915F914F913F911A
:1006A0002F910F900FBE0F901F9018951F920F92D1
:1006B0000FB60F9211242F933F934F935F936F9335
:1006C0007F938F939F93AF93BF93EF93FF930E947A
:1006D000D902FF91EF91BF91AF919F918F917F913F
:1006E0006F915F914F913F912F910F900FBE0F909F
:1006F0001F9018951F920F920FB60F9211242F93EF
:100700003F934F935F936F937F938F939F93AF9399
:10071000BF93EF93FF930E94D902FF91EF91BF9196
:10072000AF919F918F917F916F915F914F913F9189
:100730002F910F900FBE0F901F9018959DB3FB0146
:100740008081892B8DBB85E0809369007894089522
:10075000E8E6F0E0808181608083EBE6F0E0908164
:10076000DB018C91892B808378940895E8E6F0E092
:10077000808182608083ECE6F0E09081DB018C91E7
:10078000892B808378940895E8E6F0E08081846086
:100790008083EDE6F0E09081DB018C91892B8083F2
:1007A000789408959DB3FB018081809589238DBB4A
:1007B0000895EBE6F0E09081DB018C918095892330
:1007C00080830895ECE6F0E09081DB018C918095C8
:1007D000892380830895EDE6F0E09081DB018C9120
:1007E00080958923808308958DB38C7F8DBBEBE644
:1007F000F0E080811082ECE6F0E080811082EDE68E
:10080000F0E0808110820895089508955C9916C0E3
:1008100080914401909145010097F1F066E071E00C
:100820000E9405025C9A2FEF89E698E121508040F2
:100830009040E1F700C00000189508955C9BF3CF4D
:100840008091440190914501009789F068E171E041
:100850000E9405025C98E7CF62E070E081E090E0E2
:100860000E949A049093450180934401D7CF62E09F
:1008700070E081E090E00E949A049093450180939B
:100880004401E4CFCF93DF931F92CDB7DEB780E171
:1008900089838091440190914501009709F43FC0FC
:1008A000BE016F5F7F4F0E9455015C9880E1898394
:1008B0008091420190914301009731F1BE016F5F39
:1008C0007F4F0E94C4030DC06CE271E00E940502DC
:1008D0002FEF84E39CE0215080409040E1F700C07E
:1008E00000005C99F5CF80914401909145010097FB
:1008F00059F762E070E081E090E00E949A049093E2
:10090000450180934401E0CF62E070E081E090E037
:100910000E949A049093430180934201CFCF62E0FA
:1009200070E081E090E00E949A04909345018093EA
:100930004401B6CF0F931F93CF93DF93869F80011F
:10094000879F100D969F100D1124C8010E94B604B8
:10095000EC01009729F0A80160E070E00E94D70543
:10096000CE01DF91CF911F910F9108950F931F93A7
:10097000CF93DF938230910510F482E090E0E09114
:100980004801F091490120E030E0A0E0B0E030976C
:1009900019F1408151810281138148175907C8F02C
:1009A0008417950769F4109731F012960C931297FB
:1009B00013961C9327C0009348011093490122C04D
:1009C0002115310519F04217530718F49A01BD019A
:1009D000EF01DF01F801DBCF21153105F9F0281B0C
:1009E000390B2430310580F48A819B8161157105B2
:1009F00021F0FB019383828304C09093490180938B
:100A00004801FE01329644C0FE01E20FF31F8193BC
:100A1000919322503109398328833AC020914601AD
:100A200030914701232B41F42091020130910301C1
:100A3000309347012093460120910001309101013C
:100A40002115310541F42DB73EB740910401509175
:100A50000501241B350BE0914601F0914701E21797
:100A6000F307A0F42E1B3F0B2817390778F0AC01D1
:100A70004E5F5F4F2417350748F04E0F5F1F5093AE
:100A80004701409346018193919302C0E0E0F0E07A
:100A9000CF01DF91CF911F910F910895CF93DF93F5
:100AA000009709F481C0FC01329713821282A09151
:100AB0004801B0914901109781F420813181820F62
:100AC000931F20914601309147012817390751F5AE
:100AD000F0934701E093460167C0ED0120E030E06C
:100AE000CE17DF0740F44A815B819E014115510515
:100AF000F1F0EA01F5CFD383C28340815181840FA5
:100B0000951FC817D90759F488819981840F951FBB
:100B10000296918380838A819B81938382832115AE
:100B2000310529F4F0934901E09348013DC0E90102
:100B3000FB83EA8349915991C40FD51FEC17FD0738
:100B400061F480819181840F951F0296E901998358
:100B50008883828193819B838A83E0E0F0E0129610
:100B60008D919C911397009719F0FD01DC01F7CF4F
:100B70008D919C9111979D012E5F3F4F820F931F86
:100B800020914601309147012817390769F43097C1
:100B900029F4109249011092480102C01382128276
:100BA000B0934701A0934601DF91CF910895DC01F6
:100BB00001C06D9341505040E0F708954532510512
:100BC00020F4423010F00C94E905FB011082CB01B7
:100BD0000895BB274A3031F4992322F4BDE2909561
:100BE00081959F4F0C94F505BB27FB015527AA273C
:100BF000880F991FAA1FA41710F0A41B83955051AA
:100C0000B9F7A05DAA3308F0A95DA193009779F721
:100C1000B111B1931192CB010C940E06DC01FC01D1
:100C2000672F71917723E1F7329704C07C916D9320
:100C300070836291AE17BF07C8F30895F894FFCF91
:100C400000004A0120004F4E202D2D2052495349CB
:100C50004E472045444745004F4646202D2D20460F
:100C6000414C4C494E472045444745004F4646209D
:0E0C70002D2D204C4F57204C4556454C000072
:00000001FF
