:100000000C942A000C943C000C943C000C943C0092
:100010000C943C000C943C000C943C000C943C0070
:100020000C943C000C943C000C943C000C943C0060
:100030000C943C000C943C000C943C000C943C0050
:100040000C943C000C943C000C943C000C943C0040
:100050000C943C0011241FBECFE5D8E0DEBFCDBF1D
:1000600020E0A0E6B0E001C01D92A136B207E1F7A2
:100070000E94BD000C94E5020C940000CF93DF9326
:1000800000D0CDB7DEB79A83898389819A81FC013C
:10009000108200000F900F90DF91CF910895CF93C1
:1000A000DF9300D000D0CDB7DEB79A8389837C83FD
:1000B0006B8389819A81FC018081282F8B819C81AF
:1000C000FC01808180958223282F89819A81FC01FF
:1000D000208300000F900F900F900F90DF91CF9131
:1000E0000895CF93DF9300D000D0CDB7DEB79A83C9
:1000F00089837C836B8389819A81FC0120818B8138
:100100009C81FC018081282B89819A81FC012083BC
:1001100000000F900F900F900F90DF91CF910895F6
:10012000CF93DF9300D000D01F92CDB7DEB79A8374
:1001300089836B835D834C838C819D81FC018081ED
:100140009181892B49F49E012D5F3F4F89819A81CE
:10015000B9010E944F0008C09E012D5F3F4F898169
:100160009A81B9010E94710000000F900F900F90CA
:100170000F900F90DF91CF910895CF93DF93CDB77C
:10018000DEB7A1970FB6F894DEBF0FBECDBF84E0F7
:1001900089A3CE018196BC0188E390E00E944F00C4
:1001A0008FEF90E098A38F8FCE014F96AC0164E063
:1001B00088E390E00E94900080E090E0AAEFB4E431
:1001C00089839A83AB83BC8320E030E04AE753E421
:1001D00069817A818B819C810E945002DC01CB0174
:1001E0008B8B9C8BAD8BBE8B20E030E040E85FE3D7
:1001F0006B897C898D899E890E94CA0188232CF491
:1002000081E090E0988F8F8B3EC020E03FEF4FE77A
:1002100057E46B897C898D899E890E944B02181650
:1002200044F520E030E040E251E469817A818B813D
:100230009C810E945002DC01CB01BC01CD010E94D7
:10024000CF01DC01CB01988F8F8B8F89988D892B03
:1002500021F189E190E09A8F898F898D9A8D01979C
:10026000F1F79A8F898F8F89988D0197988F8F8B4F
:10027000ECCF6B897C898D899E890E94CF01DC013E
:10028000CB01988F8F8B8F89988D9C8F8B8F8B8DC7
:100290009C8D0197F1F79C8F8B8F1E8E1D8ECE014A
:1002A0004D96AC0164E088E390E00E94900080E00D
:1002B00090E0AAEFB4E48D839E83AF83B88720E0FB
:1002C00030E04AE753E46D817E818F8198850E94FA
:1002D0005002DC01CB0189879A87AB87BC8720E07D
:1002E00030E040E85FE369857A858B859C850E94D4
:1002F000CA0188232CF481E090E09E878D873FC05F
:1003000020E03FEF4FE757E469857A858B859C8530
:100310000E944B0218164CF520E030E040E251E418
:100320006D817E818F8198850E945002DC01CB0116
:10033000BC01CD010E94CF01DC01CB019E878D87DE
:100340008D859E85892B09F42BCF89E190E0988BD0
:100350008F878F8598890197F1F7988B8F878D8587
:100360009E8501979E878D87EBCF69857A858B85E2
:100370009C850E94CF01DC01CB019E878D878D85F6
:100380009E859A8B898B89899A890197F1F79A8B37
:10039000898B06CF0E94FE0108F481E008950E9437
:1003A0002A0288F09F5798F0B92F9927B751B0F0DB
:1003B000E1F0660F771F881F991F1AF0BA95C9F7E9
:1003C00014C0B13091F00E944402B1E008950C9441
:1003D0004402672F782F8827B85F39F0B93FCCF3F4
:1003E000869577956795B395D9F73EF49095809566
:1003F000709561957F4F8F4F9F4F0895990F00081B
:10040000550FAA0BE0E8FEEF16161706E807F907E6
:10041000C0F012161306E407F50798F0621B730B81
:10042000840B950B39F40A2661F0232B242B252B02
:1004300021F408950A2609F4A140A6958FEF811DA5
:10044000811D089557FD9058440F551F59F05F3F87
:1004500071F04795880F97FB991F61F09F3F79F0E6
:1004600087950895121613061406551FF2CF469568
:10047000F1DF08C0161617061806991FF1CF8695EA
:100480007105610508940895E894BB2766277727CE
:10049000CB0197F908950E94FE0108F48FEF0895AB
:1004A0000E9463020C94D4020E94C60238F00E949B
:1004B000CD0220F0952311F00C94BD020C94C302E0
:1004C00011240C9445020E94220270F3959FC1F3FF
:1004D000950F50E0551F629FF001729FBB27F00DF2
:1004E000B11D639FAA27F00DB11DAA1F649F662747
:1004F000B00DA11D661F829F2227B00DA11D621F96
:10050000739FB00DA11D621F839FA00D611D221F4F
:10051000749F3327A00D611D231F849F600D211D33
:10052000822F762F6A2F11249F5750409AF0F1F0B6
:1005300088234AF0EE0FFF1FBB1F661F771F881F1F
:1005400091505040A9F79E3F510580F00C94BD0298
:100550000C9445025F3FE4F3983ED4F3869577957B
:100560006795B795F795E7959F5FC1F7FE2B880FC5
:10057000911D9695879597F9089597F99F6780E85B
:1005800070E060E008959FEF80EC089500240A94E5
:100590001616170618060906089500240A9412165E
:1005A0001306140605060895092E0394000C11F491
:1005B000882352F0BB0F40F4BF2B11F460FF04C03E
:0E05C0006F5F7F4F8F4F9F4F0895F894FFCFCE
:00000001FF
